:020000040000fa
:080000000002040000000000f2
:020000040000fa
:10040000efd021000e7f22000e01880000000000c6
:100410000c000700e0fc2900010020000f0007008d
:10042000000020000000e000020032000000020096
:1004300000000000f0920200000000000040da001e
:100440000000fe00006120000000e0000200320019
:10045000002020009001880000000600a102880012
:10046000800078000000eb001a003700e2804000b6
:1004700054a0b4009101ba00e280400054a0b4003e
:100480009102ba00e280400054a0b4000002eb00e8
:10049000472bde00f507b200a6018800602ce100c2
:1004a00008003a000049eb000201e80002003900b0
:1004b0003420ec0002f0a0008301e900f9ff3e00c7
:1004c000040037006128e100010032000082eb00e7
:1004d000040007001101ba000200e000e3ff3a0047
:1004e0000000060004d0a300e20f49001c00390000
:1004f000810278003549ba000201e80002003900a3
:100500003420ec0002f0a0008301e9000f0032006b
:100510002549ba000201e800020039003420ec004d
:1005200002f0a0008301e900080032000400e000ae
:100530000600320015c9ba000201e80002003900c5
:100540003420ec0002f0a0008301e9008180e80083
:1005500054a0b4000300e000e2ff3a0000000600ef
:100560009102ba00055978008301e900f7ff3200d3
:10057000c82ade00055978008301e900f3ff320044
:100580000400e000f1ff320011d9ba00eeff37009d
:100590000040da000000fe0003f0a200889fbe00c9
:1005a0008a9fbe008c1f7800ac000700b3003300a8
:1005b0006450e1004f0032006420e100520032003c
:1005c00003826c0007003b000905d0000306d00041
:1005d000820f54000c065d00020039000200320058
:1005e00089017800030678008582550004003d00eb
:1005f0000003fd008103fd008502ea008b854200b7
:10060000840f720002003b0060001000e0801800c0
:100610006011b8000005eb007a28e1000a003900fb
:1006200006007800c75ddd00f707b200878075001f
:100630002d003700828171000a0178006105600099
:100640008180d1000080d3008502e900f9ff3b00e2
:10065000060440008784480002003b006004140048
:10066000e0841c000988a300070032008a81710021
:1006700082817100610164008904d1000884d30083
:100680008b05e800170037000978a30013003a0033
:100690000b00e000130034008b05e900080444005f
:1006a00089844c000a4474000978a3000d003a00c4
:1006b0000b00e000070034008b05e900080444004b
:1006c00089844c0001003a000b0020000978a30047
:1006d000f7ff32000001eb00020037008281710059
:1006e0000a017800370007000cf0a70001f0a00015
:1006f0006b0037006420e10002003a00838f6c0039
:100700006b0033000801be000200be006400370029
:10071000f4ff2f0069003700889fbe008a9fbe004b
:10072000010578000100e0000400350008003c00ed
:100730000000e000200032000500370060001000db
:10074000e080180002003b0001f02c001a00370086
:100750000004be006011b8006b0920000982cf00c0
:10076000020039000882cf000441b0006942520003
:100770000e00320008003b008281710061016400bc
:100780008904d1000884d3008b05e8000442e80006
:10079000f9ff3a00050037000804440089844c0042
:1007a0008b05e9000442e900fbff3a000500070061
:1007b0000af0a70001f0a0004f05be004f04be00e4
:1007c0000000060081002000618055000b003d0004
:1007d0000b00200061fe2f000100e1001d0034002d
:1007e00082817100610164008904d1000884d30012
:1007f0000000e800faff3a00710020006100640088
:10080000030070000200600009003200610444002f
:10081000e0844c000988a500050032008b05e80043
:100820006808e10002003a008904d1000884d3007e
:10083000f20f20000258e10005003d00c75ddd0019
:10084000f907b200898075000800780000000600f2
:100850000bf827008b007800000005000004be00a4
:10086000310007000003be000405be000200be0008
:100870002d000700844f7500000006000200be0036
:100880006450e100050036006420e10002003600fb
:100890000968a30001003a000800be000160a00042
:1008a0004f0678004f05be004f04be000000060052
:1008b000f0ff2f00f1ff2700f9ff3700889fbe00ef
:1008c0008a9fbe00841f7800e4ff07004f00780075
:1008d00011003300f0ff2f00838f6c0006003b00f7
:1008e000040565000a00a7000800370009f0a6000b
:1008f0001000200008003700820f5400838f5c0036
:10090000030039001000200001003e00000020001c
:1009100009f0a7000000ea004f05be004f04be002a
:100920000000e00000000600c70ade00f107b20088
:10093000f50fb20008003200e1cf420002003200a1
:100940000170a00024000500810f7000010032003a
:100950000408050044000500810f700002003a0001
:10096000140005008502e9000000400081c0480035
:10097000fcff3b000170a000240005000400fa0009
:10098000e0bf9f00e4815700812978000002eb005e
:100990000f0037006fb89700904078007fb897003d
:1009a000104078000402e80080cf500004003200bc
:1009b0008180fb000080fb000080500007003700b2
:1009c0006fb897000000e800e0bf9f009309e800bf
:1009d000820f5200efff3a000000eb000080fa00a7
:1009e000000006008001eb000200370061f0790092
:1009f0008301e800828f5100fcff3a0000000600ee
:100a0000889fbe008a9fbe008c9fbe0000017800b8
:100a1000a1d020001100e0000b003a00e0d020003f
:100a200050688800306888007168880041688800d4
:100a3000214090000004a000a04098006140900078
:100a40000004a000e0409800e7004100c208de007a
:100a5000c20cdd00446880004dd12000e0d02100b0
:100a60000d05500022002000811f780011000900b0
:100a70000205d80000067800cf007800c308dd002a
:100a8000e48540008001eb0046d12000a5d0200085
:100a90000100370001027800244090000008a30004
:100aa000020032000a003700110a78009400780032
:100ab000214090000008a300fbff32000901420022
:100ac000828f500002003900840f5100460031002f
:100ad00094007800848f5000eeff3e00868f500017
:100ae00002003900858f5000eaff3900306880002d
:100af000800f52004f003a00858f50004d003a00a1
:100b00008301e800e18f5100e2ff36008c8f540032
:100b1000040036008a8f5400020031000b04780074
:100b200012003700614ab8006151b900b0ff2f00d0
:100b3000010020000200500083805800800f520006
:100b4000818f5a0002003500090478000700370041
:100b50000d80540012d12100020040001100090054
:100b60000a80d8000a80b9000004780008007800e4
:100b70006800070080017800e10f40002d0032007e
:100b8000306880000308780032688000640041000b
:100b9000a2409000808f5100020032000104a000aa
:100ba000010037000104a1002141980008804100a4
:100bb000640050008009780030688800a2d02000ce
:100bc0000208780031688000214090000004a000f5
:100bd000a0409800234090000004a100a04198008c
:100be00002027800a7ff370042688800828f500019
:100bf000090036009200780040d02000a241900009
:100c00000348780011688800140978008040eb00e0
:100c1000406880002140980040688000000a780009
:100c2000244090000004a00020429800640042008c
:100c3000010037000000eb004f06be004f05be006c
:100c40004f04be00000006006400500040688800a9
:100c5000a04090000104a10021409800000006007f
:100c6000889fbe008a9fbe0000057800e401500006
:100c700013001000c285de00234090000008a3008e
:100c80000400320043688800234090000004a10063
:100c9000a04198000100780059ff07000004780087
:100ca0000000e000170032008a0f500015003200eb
:100cb00060b8970008005000c284de00898f55009c
:100cc00001003600890578004259dd008a0078006d
:100cd0000800780043ff07008a0f54000900310024
:100ce0004248dd00000044008a0f50000500360035
:100cf0000a00500000004400126880002368800051
:100d00000288be00080078004f05be004f04be00f8
:100d100000000600889fbe00800478009068800074
:100d20000000e00003003a00100007000000e000af
:100d30000a003500906880000900e00002003a00d7
:100d40000004780006003700000478000900400025
:100d5000060007000000e00001003d000084eb00f9
:100d6000080078004f04be000000060080007800f4
:100d70000000e00004003a0040d1200090688800a4
:100d800001017800060037000081eb00e0d021006f
:100d9000808f500002003e00916888000001eb0047
:080da0000200780000000600cb
:020000040000fa
:020000040002f8
:04aff400ffff00005b
:020000040000fa
:020000040002f8
:04aff8002ef800002f
:020000040000fa
:020000040002f8
:04affc00d93f000039
:020000040000fa
:10000800c8020000c8020000c8020000c8020000c0
:10001800c8020000c8020000c8020000c8020000b0
:10002800c8020000c8020000c8020000c8020000a0
:10003800c8020000c8020000c8020000c802000090
:10004800c8020000c8020000c8020000c802000080
:10005800c8020000c8020000c8020000c802000070
:10006800c8020000c8020000c8020000c802000060
:1000780030970000c8020000c8020000c802000053
:10008800c8020000c8020000c8020000c802000040
:10009800c8020000c8020000ec930000c80200007b
:1000a800c8020000c8020000c8020000c802000020
:1000b800c8020000c8020000c8020000c802000010
:1000c800c8020000c8020000c8020000c802000000
:1000d800c8020000c8020000c8020000c8020000f0
:1000e800c8020000c8020000c8020000c8020000e0
:1000f800c8020000c8020000c8020000c8020000d0
:10010800c8020000c8020000c8020000c8020000bf
:10011800c8020000c8020000c8020000c8020000af
:10012800c8020000c8020000c8020000c80200009f
:10013800c8020000c8020000c8020000c80200008f
:10014800c8020000c8020000c8020000c80200007f
:10015800c8020000c8020000c8020000c80200006f
:10016800c8020000c8020000c8020000c80200005f
:10017800c8020000c8020000c8020000c80200004f
:10018800c8020000c8020000c8020000c80200003f
:10019800c8020000c8020000c8020000c80200002f
:1001a800c8020000c8020000c8020000c80200001f
:1001b800c8020000c8020000c8020000c80200000f
:1001c800c8020000c8020000c8020000c8020000ff
:1001d800c8020000c8020000c8020000c8020000ef
:1001e800c8020000c8020000c8020000c8020000df
:0801f800c8020000c80200006b
:020000040000fa
:10020800c8020000c8020000c8020000c8020000be
:10021800c8020000c8020000c8020000c8020000ae
:10022800c8020000c8020000c8020000c80200009e
:10023800c8020000c8020000c8020000c80200008e
:10024800c8020000c8020000c8020000c80200007e
:10025800c8020000c8020000c8020000c80200006e
:10026800c8020000c8020000c8020000c80200005e
:1002780030970000c8020000c8020000c802000051
:10028800c8020000c8020000c8020000c80200003e
:10029800c8020000c8020000ec930000c802000079
:1002a800c8020000c8020000c8020000c80200001e
:1002b800c8020000c8020000c8020000c80200000e
:1002c800c8020000c8020000c8020000c8020000fe
:1002d800c8020000c8020000c8020000c8020000ee
:1002e800c8020000c8020000c8020000c8020000de
:1002f800c8020000c8020000c8020000c8020000ce
:10030800c8020000c8020000c8020000c8020000bd
:10031800c8020000c8020000c8020000c8020000ad
:10032800c8020000c8020000c8020000c80200009d
:10033800c8020000c8020000c8020000c80200008d
:10034800c8020000c8020000c8020000c80200007d
:10035800c8020000c8020000c8020000c80200006d
:10036800c8020000c8020000c8020000c80200005d
:10037800c8020000c8020000c8020000c80200004d
:10038800c8020000c8020000c8020000c80200003d
:10039800c8020000c8020000c8020000c80200002d
:1003a800c8020000c8020000c8020000c80200001d
:1003b800c8020000c8020000c8020000c80200000d
:1003c800c8020000c8020000c8020000c8020000fd
:1003d800c8020000c8020000c8020000c8020000ed
:1003e800c8020000c8020000c8020000c8020000dd
:0803f800c8020000c802000069
:020000040000fa
:100da800526f000075740000652000005265000055
:100db800706c0000792000004f4b00000d0a000005
:100dc80000200000526f00007574000065200000cc
:100dd80052650000706c0000792000004661000038
:100de800696c0000656400000d0a0000004e0000f8
:100df800756d000062650000722000006f660000db
:100e0800205a000069670000626500006520000044
:100e18006e650000747700006f7200006b200000a0
:100e280068610000766500002062000065650000ca
:100e38006e200000666900006e6400003a20000021
:100e4800000d00000a0000005072000065700000ec
:100e580061720000652000006a6f0000696e000082
:100e6800207400006f2000006e6500007477000099
:100e78006f7200006b3a000020300000780000001c
:100e88004e6f000074200000666f0000756e000051
:100e9800642000006465000073690000726500004a
:100ea800206e000065740000776f0000726b000010
:100eb800203000007831000041410000410d000061
:100ec8000a000000466f0000756e000064200000f4
:100ed800646500007369000072650000206e000000
:100ee80065740000776f0000726b0000203000000e
:100ef8007831000041410000410d00000a00000067
:100f08004e650000747700006f7200006b280000c7
:100f180073290000206600006f7500006e640000f1
:100f28002e20000054720000796900006e670000ee
:100f3800207400006f2000006a6f0000696e0000d6
:100f480020000000207c0000200000004e6f000000
:100f5800206e000065740000776f0000726b00005f
:100f680073200000666f0000756e0000642e00009c
:100f78002054000072790000696e000067200000ac
:100f880061670000616900006e2100000d0a000021
:100f98000020000045720000726f000072200000ff
:100fa800666900006e640000696e0000672000003a
:100fb8006e650000747700006f7200006b2e0000f1
:100fc8002054000072790000696e0000672000005c
:100fd80061670000616900006e2e00002e2e00007f
:100fe8000d0a0000004a00006f6900006e20000032
:100ff800746f00002074000068690000732000000e
:101008006e650000747700006f7200006b200000ae
:101018004f4b0000210d00000a000000537400002f
:101028006174000075730000200000002e2000008d
:10103800436f0000756c0000642000006e6f0000b4
:10104800742000006a6f0000696e000020610000d3
:10105800732000006f72000070680000616e00006d
:101068002e2000000054000072790000696e000014
:10107800672000006a6f0000696e000020610000b0
:10108800732000006f72000070680000616e00003d
:101098002061000067610000696e0000210d0000fa
:1010a8000a0000004d75000073740000206e0000f7
:1010b8006f77000020740000727900002061000042
:1010c80073200000612000006e650000772000009a
:1010d8006e6f0000646500002e2e00002e0d0000cb
:1010e8000a0000002e200000436f0000756c00000d
:1010f800642000006e6f0000742000006a6f00001a
:10110800696e000020730000656c000065630000d4
:1011180074650000642000006e65000074770000ac
:101128006f7200006b3a0000200000002e200000c3
:1011380054720000796900006e670000206e00009c
:101148006578000074200000646900007363000083
:101158006f7600006572000065640000206e000074
:1011680065740000776f0000726b00003a20000081
:10117800002e0000204300006c650000616e000036
:10118800696e000067200000757000002061000093
:101198006e6400002072000065740000727900001f
:1011a800696e000067200000646900007363000036
:1011b8006f76000065720000792100000d0a0000ba
:1011c800005200006f750000746500007220000076
:1011d800537400006172000074650000642100000f
:1011e800204500006e610000626c0000696e00001e
:1011f800672000006a6f0000696e0000732e00000f
:101208002e2e00000d0a0000005200006f7500002d
:1012180074650000722000007374000061720000a1
:101228007420000046610000696c000065640000dd
:101238003a0000002e2000005765000020630000df
:10124800616e00006e6f000074200000726f000075
:10125800757400006520000066720000616d000072
:10126800657300000d0a000000430000757200005d
:10127800726500006e740000204e00006574000066
:10128800776f0000726b000020410000646400006a
:10129800726500007373000020690000733a000053
:1012a800200000004e650000747700006f72000097
:1012b8006b20000041640000647200006573000048
:1012c8007320000068610000732000006a75000048
:1012d8007374000020720000652d00006173000027
:1012e80073690000676e00006564000020690000f3
:1012f80073200000307800003030000030310000ea
:101308000d0a0000004a00006f6900006e2000000e
:1013180070650000726d0000697300007369000059
:101328006f6e000020460000616900006c650000d7
:10133800643a0000200000002e20000057650000dd
:1013480020630000616e00006e6f000074200000d2
:10135800616c00006c6f0000772000006a6f00006d
:10136800696e0000730d00000a0000004e6f000057
:101378006465000020000000205700006974000028
:10138800682000004d410000432000004164000037
:1013980064720000657300007320000000200000e4
:1013a8006a75000073740000206a00006f6900000d
:1013b8006e650000642e00000d0a00000057000052
:1013c800652000006861000076650000206c000060
:1013d8006566000074200000746800006520000045
:1013e8006e650000747700006f7200006b0d0000de
:1013f8000a000000416e00006f740000686500007c
:10140800722000006e6f0000646500002068000014
:1014180061730000206c0000656600007420000005
:1014280074680000652000006e6500007477000095
:101438006f7200006b0d00000a0000005a6900007e
:1014480067420000656500002053000074610000d9
:10145800636b0000206800006173000020620000d8
:10146800656500006e20000072650000736500006d
:10147800740d00000a000000204c000065610000a7
:10148800766900006e67000020740000686500003f
:10149800205a0000696700006265000065200000ae
:1014a8006e650000747700006f7200006b0d00001d
:1014b8000a000000235600004c3a000000230000f8
:1014c800574300003a000000235300004e3a000042
:1014d80000230000534300003a0000004e6f000054
:1014e8006e6500002073000075700000706f0000ca
:1014f80072740000210d00000a000000234a000059
:101508004e3a000000230000524400003a00000058
:1015180023410000443a0000002300005243000029
:101528003a00000023520000413a00000023000066
:101538004f4b00003a00000023540000523a0000cc
:101548000020000045720000726f00007220000049
:10155800736500006e640000696e0000672000007b
:101568006d6500007373000061670000650d000081
:101578000a000000536500006e640000696e0000f8
:10158800672000006d65000073730000616700004c
:10159800652000004f4b0000210d00000a000000ec
:1015a80050650000726600006f7200006d20000038
:1015b800477200006f750000702000004f70000037
:1015c8006572000061740000696f00006e0d000014
:1015d8000a00000054720000796900006e6700007c
:1015e800207400006f2000006a6f0000696e000020
:1015f800206e000065740000776f0000726b0000b9
:101608002061000073200000616e0000206f000060
:1016180072700000686100006e2e00002e2e00001f
:101628000d0a00000054000072790000696e000085
:1016380067200000746f0000206a00006f690000d6
:101648006e2000006e650000747700006f72000065
:101658006b2000006173000020610000206e000014
:10166800657700002064000065760000696300006b
:10167800652100000d0a0000005300006c650000a1
:10168800657000002072000065710000756500003b
:1016980073740000204f00004b0d00000a0000008a
:1016a8004e6f0000726d0000616c0000204d00005c
:1016b8006f6400006520000072650000717500000d
:1016c8006573000074650000642000004f4b000043
:1016d8000d0a000000200000556e0000686100003f
:1016e8006e6400006c6500006420000070720000e9
:1016f800696d00006974000069760000650d0000de
:101708000a000000496e00006974000020480000cb
:10171800617200006477000061720000650d0000ce
:101728000a000000496e000069740000205a000099
:101738006967000062650000650d00000a0000008e
:1017480052260000442000005a6900006742000049
:10175800656500002d5200006f750000746500007b
:1017680072200000454d0000422000006279000010
:1017780020570000534100004e2d00004c6100002e
:1017880062340000313100000d0a000000540000ee
:10179800726100006e7300006365000069760000e6
:1017a800657200002d4d00005246000032340000e2
:1017b8004a340000300d00000a0000000201000059
:1017c8000f0f000000050000008000001006000058
:1017d800000000000000000000000000000a0000f7
:1017e80000000000010000000200000003000000eb
:1017f80004000000050000000600000020000000b2
:1018080021000000220000000a0000000080000003
:1018180001800000028000000380000004800000b6
:101828000580000006800000208000002180000064
:1018380022800000f000000003010000ffff00000c
:101848000003000009000000070000001900000064
:101858000000000000000000000000000000000080
:10186800000000000000000000000000050000006b
:1018780005000000060000000a0000001a00000031
:101888000800000000000000000000000000000048
:101898000000000000000000000000000000000040
:1018a8000000000000000000000000000000000030
:1018b8000000000000000000000000000000000020
:1018c8000000000000000000000000000000000010
:1018d8000000000000000000000000000000000000
:1018e80000000000000000000000000000000000f0
:1018f80000000000000000000000000010c100000f
:1019080000400000ce000000000000007f00000042
:101918000000000000000000780000000000000047
:10192800b4000000000000002c01000000000000ce
:101938001c02000000000000fc0300000000000082
:10194800bc070000000000003c0f00000000000081
:101958003c1e0000000000003c3c000000000000ad
:101968003c780000000000003cf00000000000008f
:101978003ce00000010000003cc000000300000043
:101988003c800000070000003c0000000f00000041
:1019980030310000323300003435000036370000a3
:1019a8003839000041420000434400004546000029
:1019b800a00000000000000000a3000004000000d8
:020000040000fa
:1019c8008000eb00d0568000f007b2000100320022
:1019d800110020000100780000000600881f780030
:1019e80004a9a9006c2cef006e2cef007062800037
:1019f800506288000044eb005062800022c1b300ae
:101a080001c620006d4607000844e80020012000b8
:101a18004a2cb400f94f5400f7ff3a00526cef001b
:101a28000800780053ecb7005c6cef005d6cef00c9
:101a38005e0ca900c0532a008062880060628000a2
:101a480002c1b30001c520005c4607004f047800be
:101a580000000600889fbe008a9fbe008c1f780089
:101a68000005780001067800820578001062800081
:101a7800006288008044eb0009447800016280001d
:101a880062c0b30040c420000e46070020628000f8
:101a98008a0f5000100032000844e800600020005f
:101aa800402cb400ef4f54000e003e000904e00043
:101ab800f2ff320040628000000e780046ccbf0082
:101ac800804d78000980fb004f0678004f05be0066
:101ad8004f04be000000060019c0b300ef4f5400c9
:101ae800f2ff36000904e000f2ff3a0030c0b3000c
:101af800804d78000000eb004f0678004f05be00cf
:101b08004f04be0000000600f3ff37003c4bec001a
:101b18003cebb70002003a0010c0b3003cebb70042
:101b28000080fb000000060088c9bf008000eb00b1
:101b3800050032000040e90088e9b700504c8000f9
:101b4800b080fb00504c88000100780000000600bf
:101b5800889fbe008a1f78000004eb000080fb000d
:101b680000004000640540007240b9004e0cb4000b
:101b78005062880022c1b3008000780000c62000af
:101b8800d045070041638000804c8000808f500062
:101b9800060032000804e800f90f5400f2ff3a008a
:101ba8004f0578004f04be0000000600a0ad2000dd
:101bb8006a0078008880fb00f68040008080400042
:101bc800114090000004a100904098004f05780053
:101bd8004f04be0000000600f4ff3700889fbe00d7
:101be8008a9fbe0000437800830578000044eb001c
:101bf800e5ab200067ac2000950178000300e00009
:101c0800190032000604e000030032006348900027
:101c1800814f5000110032008582e800858f530003
:101c2800f5ff3a0009c1b3000404e00001003500e3
:101c380089c0b3000804e00004003200106280008c
:101c4800006288000904e0000c003a000000eb0084
:101c58004f05be004f04be00000006004300900080
:101c6800820f5000ecff3a0018c0b3008582e800ec
:101c7800858f5300e0ff3a00eaff37000045eb008c
:101c88000a4478000162800062c0b30040c42000aa
:101c98008c450700206280008b0f50000d00320039
:101ca80030628000e30f50000a0032000844e80068
:101cb80060002000402cb40088cf5400f1ff3a00a7
:101cc8000a80fb004f05be004f04be00000006005e
:101cd800e2ff37001ac0b3000844e80060002000a3
:101ce800402cb40088cf5400e6ff3a00f4ff3700d8
:101cf800889fbe008a1f7800000578007062800007
:101d0800506288000004eb005162800022c1b300d9
:101d180000c620006b4507006f2cab0009003a0095
:101d2800200120004a2cb4000804e800f90f5400f0
:101d3800f5ff3a00080078004f0578004f04be0010
:101d480000000600406380008a0f5000f4ff3a004c
:101d58000880fb004f0578004f04be000000060015
:101d6800f8ff3700800178000409a80022c0b300fa
:101d7800020078008ee9b70030618000604c88006e
:101d880044618000844c88000001fd008fe9b700a1
:101d98000001fd00004d8800c34c880022ccbf0024
:101da80080487800a2e9b7008b69ef00e18f410015
:101db800080032008b09a80003007800ccff070058
:101dc800f94f5000030032006f0cab0001003a00dd
:101dd8008b49a80010c0b3008ae9b70000000600cc
:101de8000200fa00889fbe008a9fbe008005780026
:101df80002047800e4cf5000120032000180fb009a
:101e080000004000e1ab2000608078002050900086
:101e180062c0b3000440bc00116280008100410030
:101e28000162880062c0b30040c420002545070055
:101e3800462cef000062800062c0b30041c420005d
:101e48005e45070071902000914078000181fb00f9
:101e58008990200020c0b30000f17c000140e80018
:101e680007e9b7000080fb001841900002f07c00f1
:101e780001c0e80007e9b7000080fb002841900096
:101e880002f07c0063c040000080fb000bf07c0087
:101e980064c04000485dde000080fb000af07c0062
:101ea80065c0400007e9b7000080fb00484190008a
:101eb80002f07c0066c0400007e9b7000080fb0024
:101ec8005841900002f07c0067c0400007e9b70065
:101ed8000080fb006844900008f07c00e8c04000e7
:101ee8008000fd0007e9b7008000fd006890200031
:101ef8001844780005ff07008880fb0080f07c000c
:101f08000840e9000080fb00a1c0b30001f07c009c
:101f180008c0e9000080fb0091c2200011f07c009d
:101f2800634054000080fb0081c2200011f07c0057
:101f3800644054000080fb000af07c0065405400b7
:101f48000080fb000bf07c00664054000080fb0022
:101f58008040eb0001f07c00674054000080fb00eb
:101f680091c0b30001f07c00684454000800780078
:101f780006e9b700804c8000ea80570079ff070027
:101f88004f05be004f04be000080fa0000000600a6
:101f98000400fa00889fbe008a9fbe008c1f78004c
:101fa800800578000105780002067800116280003b
:101fb8000162880062c0b30040c42000c144070029
:101fc8000044eb00206280008b0f50001b003200a1
:101fd8000844e80001628000e68040000162880051
:101fe80062c0b30040c42000b6440700f04f54005c
:101ff800f4ff3a00116280000162880062c0b300f9
:1020080040c42000af4407000044eb003062800069
:10201800e30f5000090032000844e8000162800024
:10202800e68040000162880062c0b30040c420001e
:10203800a4440700f04f5400f4ff3a00084e78001b
:102048000000eb00e8ab2000080178008040780031
:10205800800478001200e000060032008140e800a9
:102068000900e8000281e800e40f5000f7ff3a0099
:102078008184fb00014d780040c1b3002d48070062
:10208800800078000980440008054000010d7800b0
:102098000100e0001d0032002b62880019002000ba
:1020a800396288000062800062c0b30041c4200029
:1020b800c24407009a00780000c0eb0080509800e6
:1020c8001a0478006e8057000b4807001fb8970065
:1020d800afb89700008cbe001a0078001c46780044
:1020e8002c5098009a0078000000eb00e00098005f
:1020f800da2aa800090078004f0678004f05be00cc
:102108004f04be000080fa000000060001007800bd
:102118004f0678004f05be004f04be000080fa004d
:1021280000000600f9ff37000400fa00889fbe008f
:102138008a9fbe008c1f7800000678000000eb0024
:10214800e1ad200080447800000478001100e00030
:10215800080032008944e8000800e8008180e800af
:10216800e70f5000f7ff3a00e7cf54002f00320086
:102178000984fb0000c3b300ee4707008800440051
:10218800e4854000aaad200080357d000000e00015
:1021980026003200094e7800eb007d0000c0eb00fd
:1021a800c04898006b047d006e805700d247070036
:1021b8001fb89700afb8970070049800010c9800fa
:1021c800100c9800210c9800eb007d00310890005d
:1021d8000050a100b00898006b017d003208900003
:1021e80001ff2f00010060000010a00030099800d6
:1021f8000001eb008b00780033c0b30061007d0064
:1022080002004000735098000201e800f90f5100e5
:10221800faff3a00100020004f0678004f05be0074
:102228004f04be000080fa00000006000000eb002a
:102238004f0678004f05be004f04be000080fa002c
:1022480000000600f9ff3700014de20005003a00e2
:102258000e0cab0019003a000040eb000080fb00b8
:1022680000000600c0c5200031c1b30090cf1000a7
:10227800030036000040eb000080fb000000060071
:102288008829ab001800320040c5200041c0b300c7
:1022980090cf1000f7ff3e00d0c5200051c0b3001a
:1022a80090cf1000f3ff3e00db8aab00f1ff3a004d
:1022b80010c0b3000080fb0000000600c0c520006d
:1022c80031c1b30090cf1000e3ff3e008829ab0076
:1022d80009003a00db6aab0007003a0010c0b300ff
:1022e8000080fb0000000600db6aab00e6ff3a0056
:1022f80010c0b300efff370040c5200041c0b30055
:1023080090cf1000d4ff3e00d0c5200051c0b300cc
:1023180090cf1000d0ff3e00db8aab00efff320009
:102328000040eb00cdff3700889fbe007062800040
:10233800506288000004eb005162800022c1b300a3
:1023480000c62000df4307006f2cab0008003200f6
:10235800200120004a2cb4000804e800f90f5400ba
:10236800f5ff3a00080078004f04be0000000600a0
:102378000880fb004f04be0000000600fcff370089
:10238800d1082000e24f5000080032000900360052
:1023980051012000e34f50000400320011002000da
:1023a800e44f5000010032008000eb00010078008b
:1023b80000000600d14321000004e000fbff3200ca
:1023c800e14f5000f8ff3a00d03520000000060029
:1023d800f8ff3700889fbe000004be000204e0003a
:1023e8000a003200810f5000030039000000eb00a2
:1023f8004f04be00000006000240e900e0ff0700ad
:1024080000004400808f5400f8ff310010002000c5
:102418004f04be0000000600f7ff3700889fbe008b
:102428008a9fbe000005be0070628000506288006e
:102438008044eb005162800022c1b30000c6200036
:10244800a043070070638000002cb2000124200024
:10245800810f500012003200200120004a2cb400e5
:102468008944e800f9cf5400f2ff3a0042c5200041
:1024780012417800406180008a007800d5ff07008b
:102488000004e00016003a0000618000800d78002a
:10249800100020004f05be004f04be0000000600db
:1024a80048638000880f550007003200544cec0048
:1024b800004178008a00780008007800c5ff07000e
:1024c8000004e000e4ff3200880d780010002000ce
:1024d8004f05be004f04be0000000600f0ff3700a5
:1024e8000000eb004f05be004f04be0000000600d0
:1024f800ebff37000004e0001f0032000f6cef0014
:1025080010c2b30010ecb70041c52000914078001c
:102518004309dd000200780011ecb700c0c52000b7
:1025280033c1b30090cf110013003e0020c5200036
:1025380083c1b30090cf11000f003e00d356800036
:1025480003b8a3000d003a00e4cf50000a003e0093
:102558000274a0000200780011ecb700d0c520007a
:1025680051c0b30090cf100003003e0003c8a30081
:1025780001003a00114ca80000000600e4cf50000a
:10258800f6ff360000000600716380000101780044
:10259800020cb20000042000800f5100100032002d
:1025a8000200e00002003a0090c1b30053ecb7000b
:1025b8006f2ca9006c2cef006e2cef00506280008d
:1025c80022c1b30001c620007c430700526ced0015
:1025d8006062800002c1b30001c520007743370064
:1025e8005c6ced000103b200f08f50000f00320068
:1025f80010c0b300bfff07006f2ca9006c2cef00c0
:102608006e2cef005062800022c1b30001c620008a
:102618006a430700526ced006062800002c1b3009b
:1026280001c5200065433700edff37005d6ced0004
:1026380010c0b300afff0700efff370000c620004f
:1026480001992000070009003158780034618000a2
:102658005463880070ecef00414c80000118a3001f
:102668001d003a006e8ca9006eaca800c062800004
:10267800406388000000e800c0628800e20f400064
:1026880039003200c508dd000110b2007063800017
:102698000080a10001007000706388006ecca80063
:1026a8006eeca9006f2ca8005062800022c1b30014
:1026b80001c62000414307005c6cec00526cec0042
:1026c8006062800002c1b30001c520003b430700df
:1026d80010c0b30087ff37006e8ca8006eaca9004d
:1026e800d0628000406388005d6cec00b2628000bc
:1026f80002004000d06288006611b9004461800081
:1027080004014100820f5000deff3600db8aa8007a
:10271800c508dd000110b200706380000080a100d0
:1027280001007000706388006ecca8006eeca900f0
:102738006f2ca8005062800022c1b30001c620009f
:102748001e4307005c6cec00526cec006062800079
:1027580002c1b30001c520001843070010c0b30030
:1027680064ff3700dcff3700db6aa800c508dd001e
:102778000110b200706380000080a10001007000a9
:10278800706388006ecca8006eeca9006f2ca800be
:102798005062800022c1b30001c620000743070031
:1027a8005c6cec00526cec006062800002c1b3000b
:1027b80001c520000143070010c0b3004dff3700da
:1027c800c5ff3700889fbe008a9fbe000005be0077
:1027d80070628000506288000004eb005162800043
:1027e80022c1b30000c62000b64207006f2cab0020
:1027f80009003a00200120004a2cb4000804e8002f
:10280800f90f5400f5ff3a00080078004f05be00a4
:102818004f04be0000000600406380008a0f50008d
:10282800f4ff3a00506380008b0f5000f1ff3a002c
:102838000880fb004f05be004f04be0000000600e4
:10284800f5ff3700ec874700889fbe008a9fbe00cf
:102858008c9fbe008e1f78008044780081457800e8
:102868000000eb0022af20008040780000047800d0
:102878001200e000080032008140e8000800e8008b
:102888000281e800e60f5000f7ff3a00e6cf50005b
:10289800920032000184fb00c0c0b3002546070047
:1028a800800078000806440078044600aaad20009d
:1028b80000347d000000e000880032000904e000d8
:1028c80024003a00c0ff2f008a29b400824c8000ff
:1028d800a2009800e8007d008a09ed00504c8800ad
:1028e80010407800f0409800e8007d008a09ed006b
:1028f800504c880010407800e04098008aa9ed000c
:1029080088c9bf006840400088e9b700e8007d003a
:10291800a040980068007d00204090000546070010
:10292800800478000000e00074003a0068007d0030
:102938000246070009347d00400020004f07780058
:102948004f06be004f05be004f04be00cf00b100c9
:102958000000060040618000a000980068007d002b
:10296800c14c80003100980068017d0006c9bf0095
:102978000749b50071c8b3000140400020419800e4
:1029880068007d0020409000ea4507008004780038
:102998000000e000e5ff320068007d0009087800cb
:1029a8004658dd000034a000804c780089c9bf007b
:1029b800004040009044980082992000124178001d
:1029c800a244980099c9bf00b044980081c2200071
:1029d80091407800c144980092c2200012417800ca
:1029e800d24498000b9920009b457800eb4498004e
:1029f800a2c9bf00f04498006881440006c9bf001e
:102a0800e1c7b300814f500008003e0083902000ca
:102a18000040e80006e9b7000080fb0060d97900b3
:102a280006c9bf00814f5000f9ff36000749ed0085
:102a380007e9b700e14f4000090032008200780042
:102a48008390200002c050000080fb00e0d879008d
:102a58000749ed0007e9b700e14f4000f9ff3a00e8
:102a6800f8044600acad200069047d00768057006c
:102a7800a14507005fb09700efb0970040049800a9
:102a88005104980069007d0030009000788157005b
:102a9800f78057003efd07000004e00038003a00c8
:102aa80069007d0010007800a445070069007d00da
:102ab800a24507000000eb0080347d0040002000a4
:102ac8004f0778004f06be004f05be004f04be00fa
:102ad800cf00b100000006009eff37004000200034
:102ae8004f0778004f06be004f05be004f04be00da
:102af800cf00b1000000060096ff370068007d0097
:102b08000908780008fc0700f043b200c658dd0049
:102b180080cc700004fc07009044980002fc070079
:102b2800a044980000fc0700b0449800fefb070092
:102b3800c0449800fcfb0700d0449800fafb07004b
:102b48008045e900eb449800f7fb0700f044980043
:102b5800688444008849e200c1ff3200f2fb0700a4
:102b6800005c78008849e200bdff3200eefb0700f8
:102b7800005c78008849e200f8ff3a00b8ff3700a7
:102b88000409a900f0c7b30006e9b7000047eb0045
:102b98000e00780007e9b7001fe897000080fb00e7
:102ba80000004000edab200060847e00e0c0b30070
:102bb8006045070000057800600498000000e00008
:102bc8001d003a001000200030628800006280007a
:102bd80062c0b30041c42000f84107001fe8970015
:102be8000080fb000000400060807e005345070025
:102bf8001fe897000080fb00000040000ab07e003c
:102c080069007e00100078004c45070069007e00ce
:102c18004a4507008a347e00400020004f077800ac
:102c28004f06be004f05be004f04be00cf00b100e6
:102c38000000060047ff37001fe897000080fb00f0
:102c48000000400060807e0011af200091407800b5
:102c5800614898001fe897000080fb0000004000d2
:102c68000d0040009000780042618000c20098008a
:102c7800100078007e4898001fe897000080fb004d
:102c8800000040000d00400090017800930890007b
:102c9800f28f2f008280600001a0a00091099800a7
:102ca800900078001108900000b0a10090089800ea
:102cb80010c0b300004d780000c8b300104598005c
:102cc800f1cabf00204598000040e800f1eab700cb
:102cd80069007e00604090003045980069007e00e1
:102ce80070409000404598005e45980087fb0700bb
:102cf800604598007b45980029ccbf00004d98009e
:102d080081c2200091407800114d980000c0eb006e
:102d1800204d9800c0cfb300304d98004e4d98001c
:102d280090c0b300504d980072805700f2440700dd
:102d38001fe897000080fb000000400060827e00d2
:102d48007fb097008fb89700d21f2c00f3ff2f0099
:102d5800000041008180490020029800310298005b
:102d6800100020004f0778004f06be004f05be0038
:102d78004f04be00cf00b10000000600f5fe37008a
:102d88000200fa00889fbe008a9fbe008045780036
:102d98000104780002457800830478000100780077
:102da800d3fb0700f94f5000070032007163800021
:102db800010cb20000042000808f50001e00320079
:102dc8000100e0001c0032004261800004c8b3002a
:102dd800880178008040eb00014078007ffb070005
:102de8000004e00009003200e24f550022003200e2
:102df8006a8157000800be0016fb07000004e000c7
:102e080014003a00e14f5500230032000800be00cc
:102e180082fd07000004e00011003a0010cdb30065
:102e280088e9b700200020004f05be004f04be000f
:102e38000080fa0000000600880c78000000eb0013
:102e48004f05be004f04be000080fa0000000600d7
:102e5800f9ff37006ff097000004e000ebff3a003d
:102e68000000eb004f05be004f04be000080fa00d2
:102e780000000600f0ff370011c0b3000b407800d7
:102e880070fe07004f05be004f04be000080fa0028
:102e980000000600e8ff37008a4078000b40780001
:102ea80068fe07004f05be004f04be000080fa0010
:102eb80000000600e0ff3700881f7800300020007f
:102ec8003062880044acef00106280000062880025
:102ed8000044eb000062800062c0b30041c42000df
:102ee800364107000844e80060002000402cb40088
:102ef800f04f5400f7ff3a004f0478000000060036
:102f0800889fbe008a9fbe00004578003008800078
:102f18003cebb7000469ef00d1568000da2aef00d5
:102f2800dc2aef000000220080806000d05680007c
:102f380000d0a10001007000d0568800e0b3200046
:102f4800a1b820000048eb000080e800808f500006
:102f5800fcff3a000a04e00004003a00c058800070
:102f68000000e0000100320074440700182bef0055
:102f78008004eb00e8ad2000880578000a04e00032
:102f880007003a00180078000000e0000400320052
:102f980010007800694407001800780067440700ab
:102fa800801deb008904e8000884e800e78f5400de
:102fb800f2ff3a008004eb0028af20008805780073
:102fc8000a04e00007003a00180078000000e0005a
:102fd80004003200100078005844070018007800f8
:102fe80056440700801deb008904e8000884e800c7
:102ff800e68f5400f2ff3a000004eb00e9ab200032
:10300800890578000a04e00004003a0019007800f5
:103018000000e0000100320048440700801deb007a
:103028000804e8008984e800e40f5400f5ff3a003a
:10303800a1ff07004f05be004f04be0000000600b8
:1030480010c0b300aeff07006162800002c1b30088
:1030580000c520009b40070081628000c0532a0001
:10306800808f50000e0032005cfa070080ac200010
:10307800c1ad20000048eb0064004000810f500003
:10308800fcff3a0000b0200081b120000088eb006e
:1030980064004000808f5000fcff3a0000000600ea
:1030a80030c5200091c1b30090cf1000efff32006f
:1030b80004a9a80080ac2000c1ad2000edff3700b6
:1030c8000800fa00881f7800ea805700c2cd28005f
:1030d80007000900b25878008100b1000004eb0035
:1030e8008200200023f607000000e00001003a00fb
:1030f80018002000080078004f0478000080fa00cb
:1031080000000600889fbe008a1f7800000578002e
:1031180070628000506288000004eb0051628000f9
:1031280022c1b30000c62000664007006f2cab0028
:1031380009003a00200120004a2cb4000804e800e5
:10314800f90f5400f5ff3a00080078004f057800a1
:103158004f04be00000006008200200001c62000c7
:103168000a00780003f607000000e000f1ff3a00cb
:103178000880fb004f0578004f04be0000000600e1
:10318800f5ff37004f05b000889fbe008a9fbe003c
:103198008c9fbe008e1f78000047eb00000478006b
:1031a80000fc2f0000804700d34307000fa69700bc
:1031b8009fa69700da4aab000d00320064578000e2
:1031c800755780000402560085825e0002af200019
:1031d800124178000281fb000300200040422f00ca
:1031e8000010b800800f5200818f5a0035003e0051
:1031f8000800e00023003a0004c9bf000008a3004b
:1032080027003a00d25680000208a30093003a0033
:103218000218a300b9003a000200e0002e013500b0
:103228000278a30053073200daeaa9008acbbf006c
:1032380088e9b7008bcbbf0089e9b700915c8000b3
:10324800814c8800d25c8000e35c8000c24c88001e
:10325800d34c8800f45c8000055d8000e44c880055
:10326800f54c8800c3042000030078004f0778005d
:103278004f06be004f05be004f04be004f05b1000b
:10328800000006006140b80071005000e08058005e
:1032980014062000840f5000e08f58000c00360000
:1032a8008001eb00030078004f0778004f06be004e
:1032b8004f05be004f04be004f05b10000000600d8
:1032c800f0ff37000e0ca900da4aa900c8ff370042
:1032d80000600100ee02370064033700f0ff37009a
:1032e800efff3700eeff3700b2033700ecff37007f
:1032f800e7033700eaff3700e9ff370032033700fa
:10330800d5033700e6ff3700e5ff3700e4ff370055
:10331800e3ff3700e2ff37006c023700e0ff3700b9
:10332800dfff3700bd043700ddff3700dcff370063
:10333800dbff37003704370073043700d8ff370046
:10334800d7ff3700d6ff37003c033700d4ff3700dc
:10335800d3ff3700d2ff370012043700b902370015
:10336800cfff3700ceff3700cdff3700ccff370047
:10337800cbff3700caff3700c9ff3700c8ff370047
:10338800c7ff3700c6ff3700c5ff3700c4ff370047
:10339800c3ff3700680237005d0237008f0437002b
:1033a8000f0437006c043700f9023700a704370010
:1033b8009f03370048043700b9ff3700b8ff3700cc
:1033c800b7ff3700b6ff3700b5ff3700b4ff370047
:1033d800b3ff3700b2ff3700b1ff3700b0ff370047
:1033e800afff3700aeff3700adff3700acff370047
:1033f800abff3700aaff3700a9ff3700a8ff370047
:10340800a7ff3700a6ff3700a5ff3700a4ff370046
:10341800a3ff3700a2ff3700a1ff3700a0ff370046
:103428009fff37009eff37009dff37009cff370046
:103438009bff37009aff370099ff370098ff370046
:1034480097ff370096ff370095ff370094ff370046
:1034580093ff370092ff37000f02370088b79f00ad
:10346800ebad20001b0478000800e00011003200da
:1034780018089000a80890000001560081815e009d
:10348800770133000200be00a1f4070002a02b0060
:10349800b37524009cf407000000e000e800340045
:1034a80018007800254307001b0078002343070015
:1034b800800deb000fb297000402e80084b79f006c
:1034c8008b85e800e70f5200e6ff3a008040eb00ea
:1034d800e0ad20001000e00005003a008140e8005f
:1034e8000080e800e7cf5000faff3a00da0aa900a6
:1034f800d25680000218a30047ff32000002eb00fa
:10350800e9ab2000090178000904780092007800ee
:103518000100e0000e003200e10190000300e0002d
:103528000b0032001108900000b8a3007d003a009b
:1035380021009000b10090000000560081805e00dc
:1035480025e02300850f5000e08f58007d003e00e5
:103558000402e8000884e8000281e800e40f520051
:10356800eaff3a00e8ab200069ac200018027800b6
:103578000400e0000700320034015600a4815e0018
:103588008096280091002000800f5100818f5900fb
:103598003c003e000884e800888f5400f3ff3a009e
:1035a8008041eb0083679f0003407800aaad2000ac
:1035b8000007eb00899020000080fb00000040001d
:1035c80078004000a4ad200060007a000000e00010
:1035d8000d0032003000900005fa2f008f82420063
:1035e8000581e800e48042001af907000004e000c1
:1035f800a90532002f6197000204e000cd053200d2
:10360800e24f5100320132000f6297000440e80097
:1036180080679f00e54f5000e7ff36008042eb00cf
:1036280085679f0010628000006288000162800048
:1036380062c0b30040c42000223f07003862800007
:10364800e20f5400460532008f6097008140e80081
:1036580081679f0060002000402cb400efcf50002d
:10366800f2ff36008041eb0083679f00f20ae20018
:103678007f013200d25680000200e000e8fe3d00e3
:10368800150037002450900062c0b3000440bc000d
:1036980011628000810041000162880062c0b300ad
:1036a80040c42000073f070030628000e10f50004f
:1036b800f500320018007800600090000000e0007b
:1036c800010032009d420700180078009b42070065
:1036d800000ceb00afff3700805980009159800043
:1036e8000000560081805e0005802700850f50008d
:1036f800e08f5800cafe3600a0ccb30088e9b700b6
:103708008ea9ef00a00320004f0778004f06be00e7
:103718004f05be004f04be004f05b1000000060073
:10372800d8fe370021009000b1009000000056003c
:1037380081805e00f5c32900850f5000e08f580096
:1037480083ff36000040eb0080679f0085902000d3
:1037580007c9bf008080fb003341780082f07a00ff
:103768000040e80007e9b7000f6297000440e8004e
:1037780080679f00e54f5000f5ff36000040eb00e2
:1037880080679f006b9020009b4578000b80fb00b2
:1037980033f07a008b45e9000b00780006e9b700a2
:1037a8000f6197000240e80080679f00e74f5000d4
:1037b800f6ff3600980078001108900000b0a100cc
:1037c8009008980098017800130990004810de00ce
:1037d80067404000670060004800dd00f18f2f005f
:1037e8000101610000017100920998001800780039
:1037f8002c0098003d00980018017800920890006d
:103808000070200080846000a303320001fa2f00ba
:103818008f8040000080eb0052f907000301200070
:10382800030078004f0778004f06be004f05be0022
:103838004f04be004f05b1000000060091fe37009e
:10384800b80c90000902b2001aff3a000e10a1004d
:10385800484d9000f94f5500d2043200e14f450021
:1038680090003200894178008a84fb000a40780081
:1038780022c1b3000440bc00716280008100410095
:103888005162880022c1b30000c62000f3b79f0030
:103898008c3e070072638000820078000120b2002d
:1038a800ffb1970094043a00768044001b00400062
:1038b800114098000a45e800e1c061004208dd00b7
:1038c8000e24a100004777000e28a30002003a004a
:1038d800f84f5500e4ff36001b0478004a4c980066
:1038e8004208dd000e24a100004777000e28a3003f
:1038f800f0fe32000e18a300920a3a008fb097002b
:103908000184400069c2b3006190200091407800b2
:103918000181fb008590200064004400a4ad2000d4
:10392800e0017a003340900000f17a008145e90017
:103938000b00780006e9b7000b80fb0043419000bc
:1039480002f07a0081c5e9000b00780006e9b700ab
:103958000b80fb007342900004f07a00e3c550002e
:103968000b00780006e9b7000b80fb00634190006c
:1039780002f07a00e4c550000b00780006e9b700b1
:103988000b80fb00134a900004f07a00e5c5500054
:103998000b00780006e9b7000b80fb000349900094
:1039a80002f07a00e6c550000b00780006e9b7007f
:1039b8000b80fb00234a900004f07a00e7c5500012
:1039c8000b00780006e9b7000b80fb003349900034
:1039d80002f07a00e8c550000b00780006e9b7004d
:1039e8000042eb0084679f00130178002340900099
:1039f8000004e000cf033a002f90970001fa2f004f
:103a08008f804000d7f8070060c2b30080cf540011
:103a1800ab1032008980fb0081804000d0b32000c9
:103a28000f6197008270780064004400a3ad200005
:103a380060817900e0b32000324190008270780004
:103a4800000120004f0778004f06be004f05be005a
:103a58004f04be004f05b1000000060009fe370004
:103a680061006100010020008301d1000281d300c0
:103a7800020070008380700025f307000001be007b
:103a8800c4f2070081fe3700200020003062880061
:103a98000062800062c0b30041c42000473e0700b6
:103aa80004ff370078009000880890000000560056
:103ab80081805e00f2e12400820f5000e08f580000
:103ac800fc043e00894078004a4c980084ff370087
:103ad8000f6197008281fb0003804100780040005d
:103ae80060007d00a000900040618000808f500041
:103af8006b043200689020001844780003f807002f
:103b08008880fb0080f07c008845e9008b80fb0002
:103b1800a0c0b30080f07c0088c5e9000b80fb00e2
:103b280091c2200011f07c00e34554000b80fb009b
:103b380081c2200011f07c00e44554000b0078009d
:103b480006e9b7000b81fb0001fa2f008f804000c7
:103b58003180fb00000040007800400060027d00da
:103b6800d442900005f17c00e54554000b00780034
:103b780006e9b7000b80fb004441900002f07c008e
:103b8800e64554000b80fb000ef07c00e74554002e
:103b98000b81fb0090c0b30000f17c00e8455400a5
:103ba8000b00780006e9b7007290200012417800f7
:103bb8008281fb0030c0b30080f17c000240e80045
:103bc8000080fb000ef07c0002c0e80007e9b700a7
:103bd8000080fb00e441900003f07c00634041005a
:103be80007e9b7000080fb00f442900005f07c0074
:103bf800644141000200780007e9b7002400900002
:103c080058f807008f6097000180fb000000400013
:103c18007800400060007d001000780047410700f0
:103c28000f6197000280fb00000040007800400010
:103c380060007d000008eb00404107008f6197009d
:103c48000380fb0000004000780040000e307d003b
:103c5800000120004f0778004f06be004f05be0048
:103c68004f04be004f05b1000000060085fd370077
:103c78000340780041af20000040e80080679f00c3
:103c8800e64f5000ca0432003100e000faff32006b
:103c9800d256800078fe370004c9bf000038a30060
:103ca800a4083a0020ccb30088e9b7003007200008
:103cb8004f0778004f06be004f05be004f04be00f8
:103cc8004f05b100000006006efd37000099200086
:103cd8000cfd070080679f00f94f500070fd32000f
:103ce80041638000c14c880010c0b30088e9b70068
:103cf800300220004f0778004f06be004f05be0077
:103d08004f04be004f05b100000006005dfd3700fe
:103d180020ccb30088e9b700700320004f07780073
:103d28004f06be004f05be004f04be004f05b10050
:103d38000000060053fd3700d15680000000220025
:103d48000084600056fd3a0053ccbf00f94f500084
:103d58001500320022c1b3000440bc00716280002b
:103d6800810041005162880022c1b30000c62000d2
:103d7800543d07006ecca8006eeca800506280008d
:103d880022c1b30001c620008c3d070090c1b300da
:103d980053ecb7006062800002c1b30001c5200087
:103da800863d070004a9a90088679f00084078009d
:103db80022c1b3000440bc00716280008100410050
:103dc8005162880022c1b30000c620003d3d0700b3
:103dd8006f2cab002a023a008f6197000340e8007d
:103de80080679f00f84f5000f1ff36000489a80053
:103df800c05880000000e00002003200cf400700f9
:103e0800182bef00844c8000954c8000e458880003
:103e1800f55888008fc9bf0020ebb70010c0b30069
:103e28008ee9b700800220004f0778004f06be00d9
:103e38004f05be004f04be004f05b100000006004c
:103e480010fd370004c9bf00e840600003083a00cd
:103e580020ccb30088e9b7000409a900fbc7b30068
:103e68000b00780006e9b7000100780007e9b70001
:103e7800400320004f0778004f06be004f05be00e4
:103e88004f04be004f05b10000000600fdfc3700de
:103e98008042eb0085679f0005407800a3ad2000b5
:103ea8000082eb000080fb00c200dd0062022000ff
:103eb80001014100a5ad200062807a00e10f4000b9
:103ec800040032000180420050609000a249e300e3
:103ed8002b0032008f6097000140e80080679f0048
:103ee800e54f5000efff36000041eb0082679f006e
:103ef8003dcbbf00a249e3000805320012002000b4
:103f0800f3b320006402200082679f00840f5100f1
:103f1800e3fc320082007800134078000201e800d8
:103f28008381e800a249e300f7ff3a0001804000de
:103f3800e2b32000604079008001eb000004e0005b
:103f480002003200a2e9b700430320000f62970085
:103f58000480fb00000040008040eb000170790005
:103f6800030078004f0778004f06be004f05be00db
:103f78004f04be004f05b10000000600c1fc370029
:103f88008849e2002e073a0004b17900d1ff3700d2
:103f9800009920005bfc0700f94f5000220a32000c
:103fa80050ccb30088e9b700b00320004f07780071
:103fb8004f06be004f05be004f04be004f05b100be
:103fc80000000600affc3700daaaa900dacaa80088
:103fd8000061800046f7070080679f00f94f500096
:103fe8000100320068f9070082992000c3cd28003b
:103ff800070009003359780060b2200024c0b300dc
:10400800904f120088083200d05680004d00de0024
:104018000000a2006140600088e9b700d0042000d9
:104028004f0778004f06be004f05be004f04be0084
:104038004f05b1000000060092fc370093032000f2
:104048008849e20088fc3a00db0aa80003007800ef
:104058004f0778004f06be004f05be004f04be0054
:104068004f05b1000000060086fc3700aef60700d9
:10407800c0ef9f00acf60700a0ef9f00aaf607006c
:104088000080fb0008f02f00080666000006760096
:10409800a5f6070080ef9f004800dd00fc0fb20086
:1040a80000067600a0f607000080fb000805650002
:1040b800000575009cf60700f0e79f008086fb006e
:1040c8004868dd00fa0fb2000005750096f6070093
:1040d800b0e79f0094f6070000477800afea970022
:1040e8000538a3000c0032000040eb0080679f00f9
:1040f8000044780069ab20008bf607008880fb003d
:1041080080f07c008f6097000144e80088679f007a
:10411800e74f5400f8ff36002fe997000248a30044
:104128000c0032008041eb0083679f000344780055
:10413800e9aa20007cf607008880fb0080f07c005c
:104148000f6297000444e80088679f00e74f540017
:10415800f8ff3600c04c8000e10f400058013200e3
:10416800e50f460056013e004fe9970063446100a1
:10417800e14f5400ef06320040618000800f560086
:10418800c2073a008a4c88006c4c880020c0b300f3
:104198008ee9b700500320004f0778004f06be0095
:1041a8004f05be004f04be004f05b10000000600d9
:1041b80034fc37008041eb0083679f0003407800a0
:1041c80083982000004178000080fb00f000400048
:1041d80068004000e0f079000241e8000240780001
:1041e800e74f5100f8ff360080c0b30080679f009a
:1041f80000992000c3fb070080679f00f94f50001b
:104208001209320044638000744c88008869ef000a
:10421800700120004f0778004f06be004f05be0012
:104228004f04be004f05b1000000060015fc370022
:1042380010c0b30088e9b700400220004f0778009b
:104248004f06be004f05be004f04be004f05b1002b
:10425800000006000bfc3700e098200025c0b300e2
:1042680090cf1200cc013200b12807008001eb008a
:10427800030078004f0778004f06be004f05be00c8
:104288004f04be004f05b10000000600fdfb3700db
:104298000489a9008849e200ca033a00734c8000e7
:1042a800436188000469a800ab28070053ccbf000d
:1042b80022c1b3000440bc0071628000810041004b
:1042c8005162880022c1b30000c62000fd3b0700f0
:1042d8006ecca9006eeca90004c6200075c12000b0
:1042e80007000900355a78005062800022c1b300e7
:1042f80001c62000313c070040638000006188004f
:1043080004a9a800606380004800de006f406000d8
:104318000040e80054ecb70019f807008000780066
:10432800b0628800f0628000e10160000c003a0091
:104338006608b90042618000000041000000e80002
:10434800c06288000201e800d26288008001fd0096
:104358005cecb7005decb7008001fd005e0ca800c6
:1043680010c0b30063f807006062800002c1b300a8
:1043780001c52000113c0700db0aa800316180005c
:10438800014d8800a00320004f0778004f06be00ab
:104398004f05be004f04be004f05b10000000600e7
:1043a800b8fb370088c9bf00e3032000aefb32002a
:1043b800f54f4000db03320060ccb30088e9b7005a
:1043c800030078004f0778004f06be004f05be0077
:1043d8004f04be004f05b10000000600a9fb3700de
:1043e80004c9bf000038a30055033a0020ccb3002d
:1043f80088e9b700900320004f0778004f06be00f9
:104408004f05be004f04be004f05b1000000060076
:104418009cfb37008040eb0030c3b30071390700c4
:104428008040eb0040c3b3006e390700f1c0b30011
:10443800f02220008e390700e098200013c0b30056
:1044480090cf1100aa0332000489a9008849e2002c
:104458002307320053ccbf0022c1b3000440bc0084
:1044680071628000810041005162880022c1b3005e
:1044780000c62000933b07006ecca8006eeca80095
:104488005062800022c1b30001c62000cb3b070068
:1044980090c1b30053ecb7006062800002c1b30062
:1044a80001c52000c53b070004a9a9008ea9ef009b
:1044b800a0ccb30088e9b700a00320004f0778001c
:1044c8004f06be004f05be004f04be004f05b100a9
:1044d800000006006bfb37008849e20084023200c6
:1044e80010ccb30088e9b700e00320004f0778003c
:1044f8004f06be004f05be004f04be004f05b10079
:10450800000006005ffb370080992000fdfa0700d5
:1045180080679f008849e20061fb3a00f94f50002c
:104528005ffb320040638000804c88001acbbf00dc
:1045380088e9b7008969ef00c00420004f077800b8
:104548004f06be004f05be004f04be004f05b10028
:10455800000006004bfb3700dbaaab0050fb3a001b
:1045680004c9bf000038a3009f02320080982000d1
:1045780022c0b300904f11009b023a0073b2200092
:10458800249a200007000900b4597800dbcaa80063
:1045980010c0b3008ee9b700d0c0b3008fe9b700f0
:1045a800a0aa21003061880045b32000209a20008d
:1045b80007000900b05a7800ef27070080022000a2
:1045c8004f0778004f06be004f05be004f04be00df
:1045d8004f05b100000006002afb3700da4aa9009f
:1045e8008849e20051023a000e0ca90089c9bf00af
:1045f800c0f707008869ef008303200003007800f4
:104608004f0778004f06be004f05be004f04be009e
:104618004f05b100000006001afb3700d156800094
:104628006880600063053a0035fa0700d00320006f
:104638004f0778004f06be004f05be004f04be006e
:104648004f05b100000006000efb370004c9bf008b
:104658000038a30047063a0020ccb30088e9b70029
:10466800c00320004f0778004f06be004f05be006c
:104678004f04be004f05b1000000060001fb3700e3
:104688006f6ca9005062800022c1b30001c62000ef
:104698004a3b0700d0fd370062009000a73e0700a4
:1046a800180078006900980001fa2f008f804000f8
:1046b8000080eb00abf507000301200058fc370031
:1046c8008042eb0085679f0005417800e3ad20003c
:1046d800930078000100e0000300320031009000f0
:1046e800800f5500660032000241e80082679f0093
:1046f8008381e800e74f5100f5ff3a00cfe89700c3
:1047080063c06000e14f500017043200bfe2970019
:10471800e1cf52004e00360031fa2f0001804700e9
:1047280081f607000004e000070332003f609700ad
:104738008080fb0081804000e4804000a3ad200021
:1047480061817900b20890000140a1003109980008
:10475800fff407003f6097000080fb000000400066
:1047680064004000a4ad200060007a008598200015
:1047780095427800254098003f6097000080fb0034
:10478800000040006400400060007a00cfe8970015
:10479800314898003f6097000080fb00000040000f
:1047a8006400400060007a002fe9970022489800d2
:1047b8003f6097000080fb0000004000640040005c
:1047c800e0007a00cc009800e0007a00ba00980077
:1047d800e0007a00bfe197000340e900c04098007c
:1047e8003f6097000080fb0000004000640040002c
:1047f80060007a003e4098003f6097000080fb0010
:10480800000040006400400060047a0088c9bf00ce
:10481800483e070080047800000c78000000e000a3
:10482800740732000040eb0080679f005b4c8000fb
:104838008c9820001c4678000c04e0001e003a000a
:104848005b4c88000c00780088e9b700da0aa800f9
:10485800406180008a0f5000c30a32008a4c8800e9
:10486800500320004f0778004f06be004f05be00da
:104878004f04be004f05b1000000060081fa370062
:1048880031409000804f570097ff3a00024078006f
:10489800aff4070026270700000020004f07780024
:1048a8004f06be004f05be004f04be004f05b100c5
:1048b8000000060073fa37008f6497003f60970086
:1048c8000080fb000000400064004000a1ad200013
:1048d800608078000984fb001004440092f407000b
:1048e800004c78008944e80089679f008849e20005
:1048f800d3ff32008f6497003f6097000080fb0071
:104908000000400064004000a1ad200060807800f5
:104918000984fb001004440083f40700004c78006d
:104928008944e80089679f008849e200e2ff3a006d
:10493800c3ff370007c9bf008080fb003242780000
:1049480084f07a000040e80007e9b7000f6097009c
:104958008040e80081679f0023409000814f50000d
:1049680025fc360007c9bf008080fb003242780072
:1049780084f07a000040e80007e9b7000f6097006c
:104988008040e80081679f0023409000814f5000dd
:10499800e8ff3e0018fc3700504c80001004e0008f
:1049a80031fe3a00614c8000804c800085f707009a
:1049b800f94f500037003200044d800004e8a3008e
:1049c800f40432006e8ca9006eaca9006f0ca8002c
:1049d800534c8000a34090008107b200c508dd0059
:1049e80060638000f20f2f00020060000100700079
:1049f8006063880093409000cc08dd00f2ff20003f
:104a0800020060000100700060638800134090009d
:104a1800000fb2004400de007163800002ff2f0027
:104a28008280600080807000a3c9bf006cecb70072
:104a38004f20de004a00dd0001a0a1008080700048
:104a480071638800234090004200de00610060002e
:104a58004b00dd0001b0a100808070007163880008
:104a6800614c800051638800824c8000426388005a
:104a78008fc9bf0070ecb7005062800022c1b3003c
:104a880001c620004d3a0700a92607008001eb0067
:104a9800f7fd370024f60700f94f5000f2fd320009
:104aa8006f2ca8006ecca8006eeca8000040eb00ac
:104ab80080679f000ec62000804078000080fb00c1
:104ac8000e0040000048eb008140e80001407800fb
:104ad800e7cf5000f9ff360080c0b30080679f0021
:104ae800526cec006062800002c1b30001c5200076
:104af800323a0700b0ff37001b04780048009000e6
:104b0800e40f400012003200e30f40000e003200b4
:104b18004163800038009000808f50000c00320004
:104b28000288a30063fb3a00a1979f00f680440027
:104b380088804000114090000004a1009040980037
:104b480013c0b3005bfb37000288a300f0ff3a00f4
:104b5800890044000040eb00f050980055fb3700f6
:104b6800300020003062880044acef000062800012
:104b780062c0b30041c42000103a07000800780062
:104b880088e9b700300720004f0778004f06be00bd
:104b98004f05be004f04be004f05b10000000600df
:104ba800b8f937000e00a0000900780088e9b700be
:104bb80009017800f70044009141780061c0610064
:104bc80007003a00024078000201e8008100e8008e
:104bd800f90f5100f8ff3a00f84f50002c0032004e
:104be80000cfb30088e9b700380890006f00600074
:104bf8002700320018089000a8089000000056000e
:104c080081805e0034422f00840f5000e08f5800ee
:104c180016013e000e00a1008041eb00e1c06100da
:104c28004208dd000e24a100004777000e08a3000b
:104c38002bfb32008fb197000384410064014400cc
:104c4800a4ad2000e2007a0031409000a2e9b7004c
:104c5800310890000050a000b008980062007a0067
:104c680030089000430320000048a3008cf932006c
:104c7800030078004f0778004f06be004f05be00be
:104c88004f04be004f05b100000006007df9370053
:104c98008041eb00e1ff37000f6297008481fb0041
:104ca8000380410078004000a5ad2000e0807a0034
:104cb8001100780070409000a2e9b7008869ef0001
:104cc800110078001d3d07008f6097000180fb00f0
:104cd8000000400078004000a2ad2000600079008c
:104ce800163d07008f6197000380fb00000040001d
:104cf80078004000a4ad20000e307a000409a90015
:104d0800fbc7b3000b00780006e9b7000e00780077
:104d180007e9b700400320004f0778004f06be00a0
:104d28004f05be004f04be004f05b100000006004d
:104d380054f937000f6097008081fb000380410021
:104d480078004000a1ad200060827800a4009000a7
:104d580040618000808f5000040532008244780052
:104d6800140178009e679f0003804100780040008e
:104d7800a3ad2000e0807900214090000004e0000d
:104d88000e003200859020008101780007c9bf001d
:104d98008080fb003242780084f07a000040e8000e
:104da80007e9b7001f6097000040e80090679f0080
:104db800a340900080cf5000f4ff3e002f90970052
:104dc80015fa2f0085804700e6f307000f6097006b
:104dd8008081fb0003804100f8014000a8ad20005d
:104de80063017c00a200900040618000808f500029
:104df8001700320063007c0010007800cf3c0700e9
:104e08008f6297000580fb0000004000780040009a
:104e180060007c00c93c07008f6097000180fb00a0
:104e280000004000780040000e307c0003012000a4
:104e3800030078004f0778004f06be004f05be00fc
:104e48004f04be004f05b100000006000df9370001
:104e58000980fb0000004000d1b320001f629700ca
:104e680004f0780012017800e1b32000724190004c
:104e780002f0780063007c0010007800af3c070067
:104e88008f6297000580fb0000004000780040001a
:104e980060007c00a93c07008f6097000180fb0040
:104ea80000004000780040000e307c000301200024
:104eb800dfff37000080eb00a0979f000e10a000d6
:104ec80040fc2f00008047008b3c07002fa2970072
:104ed800bfa29700140c9800250c9800094578008b
:104ee8001b04780011c0b3004a4c98007cfa3700c4
:104ef8008969ef0032618000024d880020c0b3004c
:104f08008fe9b70003618000c34c880010032000bc
:104f18004f0778004f06be004f05be004f04be0085
:104f28004f05b10000000600d6f837000e0ca800a7
:104f380088c9bf00e14f4000acfd3200f0eab7007d
:104f480080fd2f00008047006b3c07004fa99700a9
:104f5800dfa997006257880073578800da4aa800cb
:104f680089c9bf0063f507008869ef008303200043
:104f7800a2fd37000238a300c9f832000268a30076
:104f880012053200dacaa90010c0b30088e9b700d8
:104f9800400220004f0778004f06be004f05be00b4
:104fa8004f04be004f05b10000000600b5f83700f9
:104fb8000042eb0084679f00be0ae200adf93a00a8
:104fc8000440780001ac20000040e80080679f00a2
:104fd800e44f5000460432003100e000faff32008e
:104fe800d2568000a4f937000489a8008849e20055
:104ff8001a06320075b22000209a20000700090026
:10500800b05a780004c9bf000058a3002b00320032
:10501800dbcaab0029003200dbcaa90010c0b3000c
:105028008ee9b70080c0b3008fe9b700024d800059
:105038003261880043b32000249a20000700090049
:10504800b45978004c25070083022000030078003b
:105058004f0778004f06be004f05be004f04be0044
:105068004f05b1000000060086f837000e00a100c9
:105078000080eb00a0979f0038089000ef404000a8
:10508800ef80600002ff2f00020060000100700046
:10509800300c98001b04780080fc2f00008047002b
:1050a800153c07004fa09700dfa09700100c980050
:1050b800210c980013c0b300d8fe370004c9bf0004
:1050c8000058a300040032008098200011c0b300eb
:1050d80090cf10000d00320010c0b3008ee9b70069
:1050e80080c0b3008fe9b700024d800032618800ac
:1050f80043b32000249a200007000900b45978001f
:105108001d25070083022000d0ff370030c0b30000
:105118008ee9b70080c0b3008fe9b700024d800068
:105128003261880043b32000249a20000700090058
:10513800b45978001025070083022000c3ff370008
:105148008ec9bf0080679f0053ccbf0022c1b30047
:105158000440bc00716280008100410051628800f7
:1051680022c1b30000c6200056380700db0aa90098
:1051780053638000634c880070ccbf008ee9b70091
:10518800f0c0b30094e9b70095e9b7008869ef006b
:10519800d30220008f6097000104e00032f832004b
:1051a8008829a800030078004f0778004f06be0042
:1051b8004f05be004f04be004f05b10000000600b9
:1051c80030f837000469a90026acef00ea2407008c
:1051d80004a9a90053ccbf0022c1b3000440bc00fd
:1051e80071628000810041005162880022c1b300d1
:1051f80000c62000333807006f6ca90090c1b300c7
:1052080053ecb7005062800022c1b30001c62000f1
:105218006a38070090c1b30053ecb7008041eb0037
:1052280083679f0080c4eb000340780008e02000fb
:1052380022c1b3000440bc007162800081004100bb
:105248005162880022c1b30000c620001d38070043
:105258007063800008006000880f5000140032005e
:105268000f6297000440e80080679f00f84f5000e5
:10527800efff360053ccbf00f94f50003b003a0017
:105288000489a9008ea9ef0030ccb30088e9b700e3
:10529800a00320004f0778004f06be004f05be0050
:1052a8004f04be004f05b10000000600f5f73700b7
:1052b80051638000004d8000808f5000e8ff3a0065
:1052c800f0c2b3006c4ce300e5ff36006063800079
:1052d8004800de006f406000894f5000e0ff310059
:1052e800804478000f60970053ecb700dcff37006c
:1052f8008849e200420032000489a90060032000c6
:105308004f0778004f06be004f05be004f04be0091
:105318004f05b10000000600daf737008000eb0007
:1053280002fb37008869ef00e00320004f07780090
:105338004f06be004f05be004f04be004f05b1002a
:1053480000000600cff7370079240700000020008e
:105358004f0778004f06be004f05be004f04be0041
:105368004f05b10000000600c6f7370022c1b300a0
:105378000440bc00716280008100410051628800d5
:1053880022c1b30000c62000ce370700014d8000bf
:105398003161880042b32000239a200007000900e9
:1053a8003359780074240700816180008180e80007
:1053b80012c0b30000fa2f000f004000c1370700e9
:1053c80070ccbf008ee9b70020c0b3008fe9b700ea
:1053d80041638000c14c88000f60970088e9b700de
:1053e800500120004f0778004f06be004f05be0051
:1053f8004f04be004f05b10000000600a1f73700ba
:105408008969ef008a29ef00624c80000200e00001
:1054180013003200504c80000000e0007900320098
:1054280092009000908f50000500320070009000ac
:105438000000e00073003200908f5000feff3a0039
:10544800624c8000620c9000020078003b3b070031
:1054580008017800684c88000800e000edff3a0079
:105468008949e20001003a000489a9006303200089
:10547800dbcaab007cf73200dbcaa90072902000bf
:10548800124178008280fb008590200060c0b30044
:1054980080f07a000240e8000080fb00e1ccb30015
:1054a80001f07a0002c1e8000200780007e9b700bd
:1054b80020ba2000c1cd2800070009003158780023
:1054c8000041eb0082679f00024078006b9020004b
:1054d8009b45780023ba20008b44e9000b457800ef
:1054e8008b80fb000080fb006700100060c0790023
:1054f80080f07a00894578008944e9000241e80093
:1055080002407800e74f5100f4ff360080c0b30036
:1055180080679f008005fd0006e9b7008005fd0053
:1055280085bf9f0079f107008b80fb008fba970039
:1055380080f07a008980fb0010c0b30080f07a0008
:10554800e34555000b80fb0091c2200011f07a0062
:10555800e44555000b80fb0081c2200011f07a0061
:10556800e54555000b80fb0091c6200011f07a003c
:10557800e64555000b80fb0081c6200011f07a003b
:10558800e74555008b80fb0000c1b30080f07a002e
:10559800e84555008b80fb0090c0b30080f07a008e
:1055a800e94555000b00780006e9b7004063800024
:1055b80001fa2f008f804000eaf10700dbeaa8001b
:1055c80040fd2f0000804700cb3a07002faa970024
:1055d800bfaa9700845988009559880045638000c0
:1055e80005618800000120004f0778004f06be00c3
:1055f8004f05be004f04be004f05b1000000060075
:1056080020f7370012027800610062005200320071
:1056180064004100bbf6070080679f008f62970017
:10562800f9cf520086ff3200dbcaab00050032001a
:10563800624c8000a2589000f0c8b30080cf5000a0
:1056480080ff360000c1b300ba3a07008001780035
:105658000000e0007aff3200604c800010009000eb
:1056680080097800604c800010409000a0419800ac
:1056780061638000cc08de00c808dd0013009000dc
:10568800f20f2f00020060000100700090019800e6
:1056980071638000cc08dd00f2ff2000020060008a
:1056a8000100700090019800604c80002009900073
:1056b8006f0161002300900001ff2f0001006000ce
:1056c80002007000a0019800614c8000a1089000c1
:1056d800010fb200f2f02f0002006000010070001c
:1056e800a0019800614c8000a1089000cf08de005e
:1056f800c808dd000080a10001007000a00198002a
:10570800e6804100604c80006c0040001002be0042
:105718008488be0020029000b0029000a400980087
:10572800b5009800554c8000f5019800534c88004e
:105738008969ec00624c8000620c900002007800dd
:105748007e3a070008017800684c88000800e000ed
:1057580030ff3a0042ff37002200900064f1070052
:1057680080679f00adff3700eff0070080679f005c
:10577800e14f50000c0032000f609700e44f5000da
:10578800610032006a230700000020004f077800fc
:105798004f06be004f05be004f04be004f05b100c6
:1057a80000000600b7f63700db0aab00f2ff320054
:1057b800406180008a0f5000240a320018c0b300ec
:1057c800e8679f00d8f00700f0679f00d6f0070051
:1057d800806f9f00d4f00700a06f9f00d2f00700f1
:1057e800b06f9f00d0f00700804578008040e80047
:1057f800c16f9f0070cdb300a349e30002003e00d3
:105808000140e800c06f9f0030cbb300a349e3001c
:1058180003003e004f6897000040e800c06f9f00fb
:10582800f0c8b300a349e30003003e004f689700a7
:105838000040e800c06f9f00b0c6b300a349e30072
:1058480003003e004f6897000040e800c06f9f00cb
:1058580070c4b300a349e30003003e004f689700fb
:105868000040e800c06f9f0030c2b300a349e300c6
:1058780003003e004f6897000040e800c06f9f009b
:105888008f6897007f629700df9197000a01780080
:1058980008407800d1f007000004e000030032005f
:1058a800c04c8000e10f4000f1093200804c8000bc
:1058b8000ff10700f94f50000500320070638000b7
:1058c800000cb20001042000810f5000e60a3200eb
:1058d800884c800000618000800f5400630b320008
:1058e800132307008001eb00030078004f077800be
:1058f8004f06be004f05be004f04be004f05b10065
:10590800000006005ff6370087f007008045780042
:1059180040618000800f550099093200bfe0970070
:10592800e1cf50005300360032fa2f0002804700c2
:10593800fdf107000004e000b20332003f60970069
:105948008080fb0081804000e4804000a3ad2000ff
:1059580061817900b20890000140a10031099800e6
:105968007bf007003f6097000080fb0000004000cc
:1059780064004000a4ad200060007a0085982000f3
:1059880095427800254098003f6097000080fb0012
:10599800000040006400400060007a00cfe89700f3
:1059a800314898003f6097000080fb0000004000ed
:1059b8006400400060007a002fe9970022489800b0
:1059c8003f6097000080fb0000004000640040003a
:1059d800e0007a00cc009800e0007a00ba00980055
:1059e800e0007a00bfe197000340e900c04098005a
:1059f8003f6097000080fb0000004000640040000a
:105a080060007a003e4098003f6097000080fb00ed
:105a1800000040006400400060047a0088c9bf00ac
:105a2800c439070080047800000c78000000e0000a
:105a3800b50832000040eb0080679f003f60970088
:105a48000080fb000000400064004000a1ad200081
:105a5800608078009000780040c0b30080487800eb
:105a680010c0b30080679f008849e20032003a0006
:105a7800da0aa8000a0078009df0070080679f00f6
