:020000040000fa
:080000000002040000000000f2
:020000040000fa
:10040000ef1322000e7f22000e0188000000000082
:100410000c000700c09b2e00010020000f00070009
:10042000000020000000e000020032000000020096
:100430000000000076c00200000000000040da006a
:100440000000fe00007120000000e0000200320009
:10045000002020009001880000000600a102880012
:10046000800078000000eb001a003700e2804000b6
:1004700054a0b4009101ba00e280400054a0b4003e
:100480009102ba00e280400054a0b4000002eb00e8
:10049000472bde00f507b200a6018800602ce100c2
:1004a00008003a000049eb000201e80002003900b0
:1004b0003420ec0002f0a0008301e900f9ff3e00c7
:1004c000040037006128e100010032000082eb00e7
:1004d000040007001101ba000200e000e3ff3a0047
:1004e0000000060004d0a300e20f49001c00390000
:1004f000810278003549ba000201e80002003900a3
:100500003420ec0002f0a0008301e9000f0032006b
:100510002549ba000201e800020039003420ec004d
:1005200002f0a0008301e900080032000400e000ae
:100530000600320015c9ba000201e80002003900c5
:100540003420ec0002f0a0008301e9008180e80083
:1005500054a0b4000300e000e2ff3a0000000600ef
:100560009102ba00055978008301e900f7ff3200d3
:10057000c82ade00055978008301e900f3ff320044
:100580000400e000f1ff320011d9ba00eeff37009d
:100590000040da000000fe0003f0a200889fbe00c9
:1005a0008a9fbe008c1f7800ac000700b3003300a8
:1005b0006450e1004f0032006420e100520032003c
:1005c00003826c0007003b000905d0000306d00041
:1005d000820f54000c065d00020039000200320058
:1005e00089017800030678008582550004003d00eb
:1005f0000003fd008103fd008502ea008b854200b7
:10060000840f720002003b0060001000e0801800c0
:100610006011b8000005eb007a28e1000a003900fb
:1006200006007800c75ddd00f707b200878075001f
:100630002d003700828171000a0178006105600099
:100640008180d1000080d3008502e900f9ff3b00e2
:10065000060440008784480002003b006004140048
:10066000e0841c000988a300070032008a81710021
:1006700082817100610164008904d1000884d30083
:100680008b05e800170037000978a30013003a0033
:100690000b00e000130034008b05e900080444005f
:1006a00089844c000a4474000978a3000d003a00c4
:1006b0000b00e000070034008b05e900080444004b
:1006c00089844c0001003a000b0020000978a30047
:1006d000f7ff32000001eb00020037008281710059
:1006e0000a017800370007000cf0a70001f0a00015
:1006f0006b0037006420e10002003a00838f6c0039
:100700006b0033000801be000200be006400370029
:10071000f4ff2f009d003700889fbe008a9fbe0017
:10072000010578000100e0000400350008003c00ed
:100730000000e000200032000500370060001000db
:10074000e080180002003b0001f02c001a00370086
:100750000004be006011b8006b0920000982cf00c0
:10076000020039000882cf000441b0006942520003
:100770000e00320008003b008281710061016400bc
:100780008904d1000884d3008b05e8000442e80006
:10079000f9ff3a00050037000804440089844c0042
:1007a0008b05e9000442e900fbff3a000500070061
:1007b0000af0a70001f0a0004f05be004f04be00e4
:1007c0000000060081002000618055000b003d0004
:1007d0000b00200061fe2f000100e1001d0034002d
:1007e00082817100610164008904d1000884d30012
:1007f0000000e800faff3a00710020006100640088
:10080000030070000200600009003200610444002f
:10081000e0844c000988a500050032008b05e80043
:100820006808e10002003a008904d1000884d3007e
:10083000f20f20000258e10005003d00c75ddd0019
:10084000f907b200898075000800780000000600f2
:100850000bf827008b007800000005000004be00a4
:10086000650007000003be000405be000200be00d4
:1008700061000700844f7500000006000200be0002
:100880006450e100050036006420e10002003600fb
:100890000968a30001003a000800be000160a00042
:1008a0004f0678004f05be004f04be000000060052
:1008b000f0ff2f00f1ff2700f9ff3700889fbe00ef
:1008c0008a9fbe008c1f7800e4ff0700ebff330017
:1008d00003866c006450e100240032006420e100d3
:1008e000270032006150e100220032006120e10067
:1008f000210032008b854200eb07b1000134b800c3
:10090000003ab8000804420089844a00013ab8005d
:100910000030b8008880400009014a00040033001c
:100920000000400081804800020149008b05e90079
:10093000c909dd00830170000100320013002000ae
:10094000c814de004814dd004709de001200b200c2
:10095000c808de00088470009aff070001f0a100bb
:100960000cf0a70001f0a000cdff37006120e100ee
:10097000cfff32000801be000200be00f7ff3700c3
:100980006150e100fcff3a00c9ff3700889fbe00bc
:100990008a9fbe00841f7800b0ff07004f007800d8
:1009a00011003300f0ff2f00838f6c0006003b0026
:1009b000040565000a00a7000800370009f0a6003a
:1009c0001000200008003700820f5400838f5c0065
:1009d000030039001000200001003e00000020004c
:1009e00009f0a7000000ea004f05be004f04be005a
:1009f0000000e00000000600c70ade00f107b200b8
:100a0000f50fb20008003200e1cf420002003200d0
:100a10000170a00024000500810f70000100320069
:100a20000408050044000500810f700002003a0030
:100a3000140005008502e9000000400081c0480064
:100a4000fcff3b000170a000240005000400fa0038
:100a5000e0bf9f00e4815700812978000002eb008d
:100a60000f0037006fb89700904078007fb897006c
:100a7000104078000402e80080cf500004003200eb
:100a80008180fb000080fb000080500007003700e1
:100a90006fb897000000e800e0bf9f009309e800ee
:100aa000820f5200efff3a000000eb000080fa00d6
:100ab000000006008001eb000200370061f07900c1
:100ac0008301e800828f5100fcff3a00000006001d
:100ad000889fbe008a9fbe008c9fbe0000017800e8
:100ae000c1d421001100e0000b003a0000d5210024
:100af00060ea880040ea880081ea880051ea8800bc
:100b0000214090000004a000a040980061409000a7
:100b10000004a000e0409800e7004100c208de00a9
:100b2000c20cdd0054ea80006dd52100e0132200e4
:100b30000d05500022002000811f780011000900df
:100b40000205d80000067800cf007800c308dd0059
:100b5000e48540008001eb0066d52100c5d421006a
:100b60000100370001027800244090000008a30033
:100b7000020032000a003700110a78009400780061
:100b8000214090000008a300fbff32000901420051
:100b9000828f500002003900840f5100460031005e
:100ba00094007800848f5000eeff3e00868f500046
:100bb00002003900858f5000eaff390040ea8000ca
:100bc000800f52004f003a00858f50004d003a00d0
:100bd0008301e800e18f5100e2ff36008c8f540062
:100be000040036008a8f5400020031000b047800a4
:100bf00012003700614ab8006151b900b0ff2f0000
:100c0000010020000200500083805800800f520035
:100c1000818f5a0002003500090478000700370070
:100c20000d8054001214220002004000110009003f
:100c30000a80d8000a80b900000478000800780013
:100c40006800070080017800e10f40002d003200ad
:100c500040ea80000308780042ea80006400410016
:100c6000a2409000808f5100020032000104a000d9
:100c7000010037000104a1002141980008804100d3
:100c8000640050008009780040ea8800c2d4210046
:100c90000208780041ea8000214090000004a00092
:100ca000a0409800234090000004a100a0419800bb
:100cb00002027800a7ff370052ea8800828f5000b6
:100cc000090036009200780060d42100a241900013
:100cd0000348780021ea8800140978008040eb007e
:100ce00050ea80002140980050ea8000000a780015
:100cf000244090000004a0002042980064004200bc
:100d0000010037000000eb004f06be004f05be009b
:100d10004f04be00000006006400500050ea880046
:100d2000a04090000104a1002140980000000600ae
:100d3000889fbe008a9fbe0000057800e401500035
:100d400013001000c285de00234090000008a300bd
:100d50000400320053ea8800234090000004a10000
:100d6000a04198000100780059ff070000047800b6
:100d70000000e000170032008a0f5000150032001a
:100d800060b8970008005000c284de00898f5500cb
:100d900001003600890578004259dd008a0078009c
:100da0000800780043ff07008a0f54000900310053
:100db0004248dd00000044008a0f50000500360064
:100dc0000a0050000000440022ea800033ea80005c
:100dd0000288be00080078004f05be004f04be0028
:100de00000000600889fbe0080047800a0ea800012
:100df0000000e00003003a00100007000000e000df
:100e00000a003500a0ea80000900e00002003a0074
:100e10000004780006003700000478000900400054
:100e2000060007000000e00001003d000084eb0028
:100e3000080078004f04be00000006008000780023
:100e40000000e00004003a0060d52100a0ea88001c
:100e500001017800060037000081eb00e01322005a
:100e6000808f500002003e00a1ea88000001eb00e4
:080e70000200780000000600fa
:020000040000fa
:020000040002f8
:04aff400ffff00005b
:020000040000fa
:020000040002f8
:04aff8002ef800002f
:020000040000fa
:020000040002f8
:04affc00d93f000039
:020000040000fa
:10000800c8020000c8020000c8020000c8020000c0
:10001800c8020000c8020000c8020000c8020000b0
:10002800c8020000c8020000c8020000c8020000a0
:10003800c8020000c8020000c8020000c802000090
:100048001ccb0000c8020000c8020000d0cb000092
:10005800c8020000aecb0000c8020000c8020000c1
:10006800c8020000c8cb0000c8020000c802000097
:1000780004d70000c8020000c8020000c80200003f
:10008800c8020000c8020000c8020000c802000040
:10009800c8020000c8020000c8020000c802000030
:1000a800c8020000c8020000c8020000c802000020
:1000b800c8020000c8020000c8020000c802000010
:1000c800c8020000c8020000c8020000c802000000
:1000d800c8020000c8020000c8020000c8020000f0
:1000e800c8020000c8020000c8020000c8020000e0
:1000f800c8020000c8020000c8020000c8020000d0
:10010800c8020000c8020000c8020000c8020000bf
:10011800c8020000c8020000c8020000c8020000af
:10012800c8020000c8020000c8020000c80200009f
:10013800c8020000c8020000c8020000c80200008f
:10014800c8020000c8020000c8020000c80200007f
:10015800c8020000c8020000c8020000c80200006f
:10016800c8020000c8020000c8020000c80200005f
:10017800c8020000c8020000c8020000c80200004f
:10018800c8020000c8020000c8020000c80200003f
:10019800c8020000c8020000c8020000c80200002f
:1001a800c8020000c8020000c8020000c80200001f
:1001b800c8020000c8020000c8020000c80200000f
:1001c800c8020000c8020000c8020000c8020000ff
:1001d800c8020000c8020000c8020000c8020000ef
:1001e800c8020000c8020000c8020000c8020000df
:0801f800c8020000c80200006b
:020000040000fa
:10020800c8020000c8020000c8020000c8020000be
:10021800c8020000c8020000c8020000c8020000ae
:10022800c8020000c8020000c8020000c80200009e
:10023800c8020000c8020000c8020000c80200008e
:100248001ccb0000c8020000c8020000d0cb000090
:10025800c8020000aecb0000c8020000c8020000bf
:10026800c8020000c8cb0000c8020000c802000095
:1002780004d70000c8020000c8020000c80200003d
:10028800c8020000c8020000c8020000c80200003e
:10029800c8020000c8020000c8020000c80200002e
:1002a800c8020000c8020000c8020000c80200001e
:1002b800c8020000c8020000c8020000c80200000e
:1002c800c8020000c8020000c8020000c8020000fe
:1002d800c8020000c8020000c8020000c8020000ee
:1002e800c8020000c8020000c8020000c8020000de
:1002f800c8020000c8020000c8020000c8020000ce
:10030800c8020000c8020000c8020000c8020000bd
:10031800c8020000c8020000c8020000c8020000ad
:10032800c8020000c8020000c8020000c80200009d
:10033800c8020000c8020000c8020000c80200008d
:10034800c8020000c8020000c8020000c80200007d
:10035800c8020000c8020000c8020000c80200006d
:10036800c8020000c8020000c8020000c80200005d
:10037800c8020000c8020000c8020000c80200004d
:10038800c8020000c8020000c8020000c80200003d
:10039800c8020000c8020000c8020000c80200002d
:1003a800c8020000c8020000c8020000c80200001d
:1003b800c8020000c8020000c8020000c80200000d
:1003c800c8020000c8020000c8020000c8020000fd
:1003d800c8020000c8020000c8020000c8020000ed
:1003e800c8020000c8020000c8020000c8020000dd
:0803f800c8020000c802000069
:020000040000fa
:100e7800496e0000697400002055000041520000ce
:100e8800543200000d0a0000004900006e6900009d
:100e9800742000004861000072640000776100005f
:100ea800726500000d0a0000005a00006967000022
:100eb8006265000065200000496e0000697400004a
:100ec8000d0a0000002d00005f2d00005f2d0000be
:100ed8005f2d00005f2d00005f2d00005f2d0000da
:100ee8005f2d00005f2d00005f2d00005f2d0000ca
:100ef8005f2d00005f2d00005f2d00005f2d0000ba
:100f08005f2d00005f2d00005f2d00005f0d0000c9
:100f18000a0000005a690000674200006565000089
:100f2800205200006f7500007465000072200000f8
:100f3800536500006e7300006f72000039000000f6
:100f4800202d0000205200002644000020620000ee
:100f58007920000057530000414e00002d4c00003e
:100f68006162000034310000310d00000a00000009
:100f780054720000616e0000736300006569000030
:100f880076650000722d00004d52000046320000c8
:100f9800344a0000343000000d0a000000520000fe
:100fa8006f75000074650000205200006570000035
:100fb8006c790000204f00004b0d00000a00000073
:100fc800205200006f750000746500002052000078
:100fd800657000006c79000020460000616900001f
:100fe8006c650000640d00000a0000004e750000ea
:100ff8006d62000065720000206f0000662000002e
:101008005a6900006762000065650000206e0000f4
:1010180065740000776f0000726b000020680000a4
:10102800617600006520000062650000656e0000c2
:1010380020660000696e0000643a0000200000008d
:101048000d0a000000500000726500007061000089
:1010580072650000206a00006f6900006e200000c1
:10106800746f0000206e000065740000776f000048
:10107800726b00003a20000030780000004e00003b
:101088006f740000206600006f7500006e64000039
:10109800206400006573000069720000652000008c
:1010a8006e650000747700006f7200006b2000000e
:1010b8003078000031410000414100000d0a000075
:1010c800004600006f7500006e6400002064000098
:1010d8006573000069720000652000006e650000fd
:1010e800747700006f7200006b20000030780000f9
:1010f80031410000414100000d0a0000004e00008f
:1011080065740000776f0000726b000028730000a0
:1011180029200000666f0000756e0000642e000034
:101128002054000072790000696e000067200000fa
:10113800746f0000206a00006f6900006e200000d4
:10114800002000007c200000004e00006f200000fe
:101158006e650000747700006f7200006b7300000a
:10116800206600006f7500006e6400002e200000ed
:1011780054720000796900006e6700002061000069
:1011880067610000696e0000210d00000a00000080
:1011980020450000727200006f7200002066000097
:1011a800696e0000646900006e670000206e000030
:1011b80065740000776f0000726b00002e2000003d
:1011c80054720000796900006e6700002061000019
:1011d80067610000696e00002e2e00002e0d0000d1
:1011e8000a0000004a6f0000696e0000204f0000ee
:1011f8004b2100000d0a000000530000746100003c
:1012080074750000733a0000200000002e200000d2
:10121800436f0000756c0000642000006e6f0000d2
:10122800742000006a6f0000696e000020610000f1
:10123800732000006f72000070680000616e00008b
:101248002e2000000054000072790000696e000032
:101258006720000061670000616900006e210000de
:101268000d0a0000004d0000757300007420000096
:10127800747200007920000061730000206e000085
:1012880065770000206e00006f6400006521000093
:101298000d0a0000002e0000204300006f750000ba
:1012a8006c640000206e00006f740000206a00006b
:1012b8006f6900006e200000736500006c65000017
:1012c8006374000065640000206e0000657400000f
:1012d800776f0000726b00003a200000002e0000bb
:1012e8002054000072790000696e00006720000039
:1012f8006e650000787400002064000069730000c7
:10130800636f0000766500007265000064200000cd
:101318006e650000747700006f7200006b3a000081
:10132800200000002e200000436c000065610000d2
:101338006e6900006e6700002075000070200000d4
:10134800616e000064200000726500007472000085
:10135800796900006e67000020640000697300006e
:10136800636f00007665000072790000210d0000af
:101378000a000000526f00007574000065720000da
:10138800205300007461000072740000656400005e
:1013980021200000456e0000616200006c690000b9
:1013a8006e670000206a00006f6900006e7300001d
:1013b8002e2e00002e0d00000a0000002052000012
:1013c8006f750000746500007220000073740000df
:1013d800617200007420000046610000696c000022
:1013e800656400002e20000057650000206300009f
:1013f800616e00006e6f000074200000726f0000c4
:10140800757400006520000066720000616d0000c0
:10141800657300000d0a0000004a00006f690000b3
:101428006e6900006e6700002070000065720000a1
:101438006d6900007474000065640000210d0000ef
:101448000a0000004375000072720000656e00001b
:10145800742000004e650000747700006f72000071
:101468006b20000041640000647200006573000096
:1014780073200000697300003a200000002000007b
:101488004a6f0000696e000020700000657200005d
:101498006d69000073730000696f00006e20000022
:1014a80046610000696c0000656400002e200000a1
:1014b8005765000020630000616e00006e6f000039
:1014c80074200000616c00006c6f00007720000041
:1014d8006a6f0000696e0000730d00000a000000ca
:1014e8004e6f0000646500002000000020570000d7
:1014f80069740000682000004d410000432000008e
:1015080041640000647200006573000073200000ed
:10151800002000006a75000073740000206a000053
:101528006f6900006e650000642e00000d0a00005f
:101538000057000065200000686100007665000023
:10154800206c0000656600007420000074680000cc
:10155800652000006e650000747700006f7200005f
:101568006b0d00000a000000416e00006f7400005f
:1015780068650000722000006e6f0000646500005e
:101588002068000061730000206c000065660000a0
:101598007420000074680000652000006e6500007b
:1015a800747700006f7200006b0d00000a000000e5
:1015b8005a6900006742000065650000205300007a
:1015c80074610000636b0000206800006173000014
:1015d80020620000656500006e2000007265000052
:1015e80073650000740d00000a000000204c000024
:1015f80065610000766900006e67000020740000d5
:1016080068650000205a00006967000062650000f4
:10161800652000006e650000747700006f7200009e
:101628006b0d00000a00000043680000616e0000b6
:1016380067650000207400006f2000006d6f0000d7
:1016480064650000205300006176000065450000d5
:101658006e65000072670000790d00000a00000046
:1016680043680000616e0000676500002074000098
:101678006f2000006d6f00006465000020410000cd
:101688006374000069760000650d00000a00000020
:101698004a7500007374000020730000656e000036
:1016a800742000006461000074610000206600007e
:1016b8006f720000207200006571000075650000ff
:1016c80073740000206f000066200000526f000055
:1016d80075740000657200005f4500004d4200000f
:1016e8000d0a000000430000594300004c4500006b
:1016f8005f4c000045560000454c0000203d0000ae
:1017080020000000536500006e640000696e000050
:10171800672000006c6f00006f70000020620000fe
:10172800616300006b0d00000a000000204e0000fd
:101738006f6e00002d73000075700000706f000060
:1017480072740000204300006c7500007374000080
:1017580065720000494400002e2e00002e0d000086
:101768000a00000020450000727200006f7200003d
:1017780020730000656e0000646900006e67000059
:10178800206d00006573000073610000676500004c
:101798000d0a000000530000656e00006469000037
:1017a8006e670000206d0000657300007361000023
:1017b80067650000204f00004b2100000d0a000063
:1017c8000050000065720000666f0000726d000036
:1017d80020470000726f000075700000204f000065
:1017e8007065000072610000746900006f6e00008f
:1017f8000d0a00000054000072790000696e0000b4
:1018080067200000746f0000206a00006f69000004
:101818006e2000006e650000747700006f72000093
:101828006b20000061730000206100006e20000042
:101838006f72000070680000616e00002e2e0000bc
:101848002e0d00000a0000005472000079690000a3
:101858006e670000207400006f2000006a6f0000af
:10186800696e0000206e000065740000776f00004c
:10187800726b0000206100007320000061200000ee
:101888006e6500007720000064650000766900003e
:10189800636500002e2e00002e0d00000a000000d7
:1018a800536500006e640000696e00006720000048
:1018b80077610000726e0000696e0000672000000a
:1018c8006c6f0000772d0000706f000077650000d6
:1018d80072200000746f000020520000450d0000c7
:1018e8000a000000536500006e640000696e000085
:1018f8006720000070650000726900006f640000d6
:10190800206400006174000061200000746f000012
:1019180020520000452000000d0a0000004200008f
:10192800617400002064000061750000206e0000f2
:1019380067750000200d00000a00000042610000e9
:1019480074200000646100007520000074680000c5
:1019580075630000200d00000a00000020550000fb
:101968006e680000616e0000646c00006564000031
:1019780020700000726900006d6900007469000041
:10198800766500000d0a0000004a0000757300002b
:1019980074200000736500006e740000206400006d
:1019a8006174000061200000706f0000736900001e
:1019b800746900006f200000666f0000722000004c
:1019c80072650000717500006573000074200000e6
:1019d8006f660000205200006f75000074650000fb
:1019e800725f0000454d0000420d00000a00000033
:1019f800566f00006c7400006167000065200000ed
:101a08002868000065780000293a000020000000de
:101a1800446500007465000063740000696e00008e
:101a2800672000006c6f000077200000706f0000d6
:101a380077650000720d00000a000000524d00009a
:101a48003a30000030310000005200004d3a0000ea
:101a58003030000032000000524d00003a300000e3
:101a680030330000005200004d3a000030300000d2
:101a78003400000000400000ce000000000000001c
:101a88007f000000000000000000000010c10000fe
:101a9800000000000000000000000000000a000034
:101aa8000000000001000000020000000300000028
:101ab80004000000050000000600000020000000ef
:101ac80021000000220000000a0000000080000041
:101ad80001800000028000000380000004800000f4
:101ae80005800000068000002080000021800000a2
:101af80022800000f000000003010000ffff00004a
:101b080000030000090000001900000007000000a1
:101b180000000000000000000000000000000000bd
:101b280000000000000000000000000006000000a7
:101b380005000000060000000a0000001a0000006e
:101b48000800000001000000000000000000000084
:101b5800000000000000000000000000000000007d
:101b6800000000000000000000000000000000006d
:101b7800000000000000000000000000000000005d
:101b8800000000000000000000000000000000004d
:101b9800000000000000000000000000000000003d
:101ba800000000000000000000000000000000002d
:101bb800000000000000000000000000020100001a
:101bc8000f0f000000050000008000001006000054
:101bd8007800000000000000b400000000000000d1
:101be8002c010000000000001c02000000000000a2
:101bf800fc03000000000000bc070000000000001b
:101c08003c0f0000000000003c1e00000000000027
:101c18003c3c0000000000003c7800000000000090
:101c28003cf00000000000003ce000000100000063
:101c38003cc00000030000003c80000007000000da
:101c48003c0000000f00000030310000323300007b
:101c580034350000363700003839000041420000b2
:101c680043440000454600007374000061720000a0
:101c7800740a0000006500006e64000000000000a7
:101c8800090000000004000000a300000400000098
:020000040000fa
:101c98000600fa00b0d78000c1d78000f207200004
:101ca800030020000002780081027800020078001a
:101cb8008300780000016200018062006102b800c0
:101cc80014079800250798001e009000ae009000a9
:101cd800c000dd00000020001007980021079800d0
:101ce8001e009000ae0090006112b8001407980022
:101cf800250798001e019000ae01900002007000b8
:101d0800838070008001eb00030f7800e00f500023
:101d1800e08f58000200320014002000040f780001
:101d28001e0078000080fa00000006000200fa0099
:101d380010c0b3005725070041e5800060c92100a5
:101d480002c1b300c1680700b1e48000c0532a0093
:101d5800808f5000020032007e2307000400370005
:101d680099dcbf00f94f50000100320072b8a8009a
:101d78000040eb00004f7800080037001e80fb0091
:101d88004200dd008080e80000b52100808040002e
:101d98000040eb00804878001e4fe80040c0b300c8
:101da8009e4f1000f5ff36000040eb00004f780012
:101db800090037001e80fb004200dd0061022000a0
:101dc8008080400060af2100808040000080eb00f0
:101dd800800878001e4fe80050c0b3009e4f1000e6
:101de800f4ff36000080fa00000006009e00fa00aa
:101df800889fbe0030379800800620000e00400003
:101e0800056e07004e309000de30900050179800a5
:101e180061179800b0d78000640060000000e000ff
:101e2800180032005e119000ee11900040d880003a
:101e380051d8800000045100818459000cdbbf0098
:101e48000083fb00070020008600780040422f0036
:101e58000009b8006030b9000302780000024200af
:101e680040422f0000b8b900000242008401780007
:101e7800820f5400838f5c00020036006c1ba9009f
:101e8800f65aa9003e3090000000e00006083a002b
:101e980072d8bf00614060000004e0000300320017
:101ea8000000eb00308f9800901c3700b0d78000fe
:101eb800610060000000e000d20232000040eb0048
:101ec80020679800b60237002e6090000080fb0063
:101ed80000004000e400400060af210000804000a6
:101ee800100078000000e000aa0232005e119000a5
:101ef800ee1190002e6090000080fb000000400072
:101f0800e400400060af210000804000100078002d
:101f1800a00890001008900000015100818159002c
:101f2800128f9800238f98001e899000ae89900028
:101f3800e00f5100e08f5900060035001e88900020
:101f4800ae889000f2f9070070879800018f98001a
:101f5800160037001e889000610160006000b8001c
:101f68000300200002007000838070001e8a900029
:101f7800ae8a90008501d1000481d3000200700070
:101f880083807000e2f9070070879800018f98003d
:101f98007e8190008e8990007e8090008e889000cf
:101fa8007cf9070070879800018f980002a02b0029
:101fb800b37524007e8090008e889000d2f90700c7
:101fc8000000e00001003c001a0037002e6090007d
:101fd8000080fb0000004000e400400060af2100ea
:101fe800008040001000780010007800b06d0700f5
:101ff8002e6090000080fb0000004000e4004000dc
:1020080060af21000080400010007800a86d070034
:102018002e6090000080fb0000004000e4004000bb
:1020280060af2100808040000000eb00800878004d
:10203800580237002e6090000080fb00000040002e
:10204800e400400060af21000080400010007800ec
:10205800b008900000022000008060000000e0004e
:102068004c023a006e6890000020a100606f980052
:102078006e6890000010a100606f98002e609000bc
:102088000080fb0000004000e400400060af210039
:10209800008040001000780040489000f94f500040
:1020a800b40032002e6090000080fb000000400069
:1020b800e400400060af210000804000100078007c
:1020c800c04a9000156798001e609000e14f4000dc
:1020d8002b003a005e119000ee1190002e609000e7
:1020e8000080fb0000004000e400400060af2100d9
:1020f8000080400010007800800890007000900078
:102108000001510081815900804126000100200012
:10211800800f5100818f59008c0036000080eb0041
:10212800401798006e6890000020a000606f98002b
:102138006e6890000010a000606f98002e609000fc
:102148000080fb0000004000e400400060af210078
:102158000080400010047800c00620000e004000f7
:102168002d6d07006e309000fe309000100c980026
:10217800210c98000040eb001067980073003700ae
:102188001e6090000080fb007200b900800078009b
:1021980030e580000080400050e5880051e580006f
:1021a80040c8210022c1b300a867070091e480005d
:1021b80000202000008060000000e0000e003a00cf
:1021c8002e6090000080fb0000004000e40040000a
:1021d80060af210000804000900078001e609000f1
:1021e8000080fb0076004000810040000040eb00ca
:1021f800904098004b0037002e6090000080fb0054
:1022080000004000e400400060af21000080400072
:102218001000780040009000e40f40001a003200df
:102228002e6090000080fb0000004000e4004000a9
:1022380060af21000080400010007800400090004e
:10224800e30f400005003a0090e4800001102000f0
:10225800010060000000e0000b00320062e4800032
:102268002e6090000080fb0000004000e400400069
:1022780060af21000080400010007800300090001e
:10228800800f51000e003a002e6090000080fb0085
:1022980000004000e400400060af210000804000e2
:1022a800900078001e6090000080fb0076004000df
:1022b800810040000040eb00904098001900370072
:1022c80090e4800001102000010060000000e000a0
:1022d80014003a0060e48000401798006e6890008f
:1022e8000020a000606f98002e6090000080fb0026
:1022f80000004000e400400060af21000080400082
:10230800900078001e6090000080fb00760040007e
:102318000101400092409000e0cfb30000c060008f
:10232800104198001e6090000040e8001067980077
:102338006e689000644060000004e00003003a000a
:102348001e609000f84f50008dff36002e60900000
:102358000080fb0000004000e400400060af210066
:1023680000804000100078009e609000414898006e
:102378006f0037006e6890000000a000606f980042
:102388000040eb00ccf7b7000040eb001067980066
:10239800030037001e6090000040e80010679800b6
:1023a8001e609000f84f50000f003e002e60900015
:1023b8000080fb0000004000e400400060af210006
:1023c80000804000900078001e6090000080fb00b4
:1023d800760040000100400010409000614060001d
:1023e8000004e000ebff32001e609000f94f50003f
:1023f8004b00320000cfb300ccf7b7002e6090003e
:102408000080fb0000004000e400400060af2100b5
:102418000080400010007800300890006f006000d5
:102428000000e0003e0032005e119000ee119000c6
:102438002e6090000080fb0000004000e400400097
:1024480060af21000080400010007800a0089000d4
:1024580010089000000151008181590030422f007e
:1024680001002000800f5100818f5900290036009b
:102478006e6890000000a100606f98000080eb007b
:10248800401798006e6890000020a000606f9800c8
:102498002e6090000080fb0000004000e400400037
:1024a80060af2100008040001001780032089000e1
:1024b8006f4060000040e9006f4060000080fb0052
:1024c800ef016000b208900000ff2f00008060005c
:1024d80003007000300998002e6090000080fb0017
:1024e80000004000e400400060af21000080400090
:1024f80010047800000720000e004000466c07001a
:102508000e3890009e389000100c9800210c98000e
:10251800030037006e6890000000a100606f98000b
:102528006e689000614060000004e0002d003a00f1
:102538006e689000644060000004e00015013200fd
:1025480060c2b300006798006e6890006240600047
:102558000004e000480032002e6090000080fb007c
:1025680000004000e400400060af2100008040000f
:1025780010007800b000900030dc8000808f5000a0
:102588003d003a000040eb00006798000300370068
:102598000e6090000040e800006798008e60900090
:1025a80050c2b30080cf500008003e000e6090007b
:1025b8000080fb008000400010aa2100008040003d
:1025c800104078000004e000f1ff3a008e609000af
:1025d80060c2b30080cf500027003a0010cfb3008c
:1025e800ccf7b7002e6090000080fb000000400090
:1025f800e400400060af2100008040001000780037
:1026080030409000e6f7b7002e6090000080fb0095
:1026180000004000e400400060af2100008040005e
:1026280010017800b20890000002200000807000bd
:10263800300998002e6090000080fb0000004000e8
:10264800e400400060af21000080400010007800e6
:1026580030089000700060000000e00003003200c5
:1026680042032000328f9800a01a37008001eb0047
:10267800338f98009d1a3700f286210012417800a6
:102688008281fb002e6090000080fb00000040006b
:10269800e400400060af2100008040001000780096
:1026a800b0409000e07e21000080410001487800a1
:1026b8000240e9006ff8b700f28621001241780065
:1026c8008281fb002e6090000080fb00000040002b
:1026d800e400400060af2100008040001000780056
:1026e800c0409000e07e2100008041000148780051
:1026f8000240e9006ff8b700f28621001241780025
:102708008281fb002e6090000080fb0000004000ea
:10271800e400400060af2100008040001000780015
:10272800f0409000e07e21000080410001487800e0
:102738000240e9006ff8b700f286210012417800e4
:102748008281fb002e6090000080fb0000004000aa
:10275800e400400060af21000080400010007800d5
:10276800e0409000e07e21000080410001487800b0
:102778000240e9006ff8b700f286210012417800a4
:102788008281fb002e6090000080fb00000040006a
:10279800e400400060af2100008040001000780095
:1027a80090489000e07e21000080410001487800b8
:1027b8000240e9006ff8b700f28621001241780064
:1027c8008281fb002e6090000080fb00000040002a
:1027d800e400400060af2100008040001000780055
:1027e80080489000e07e2100008041000148780088
:1027f8000240e9006ff8b700f28621001241780024
:102808008281fb002e6090000080fb0000004000e9
:10281800e400400060af2100008040001000780014
:10282800a0489000e07e2100008041000148780027
:102838000240e9006ff8b700f286210012417800e3
:102848008281fb002e6090000080fb0000004000a9
:10285800e400400060af21000080400010007800d4
:10286800b0489000e07e21000080410001487800d7
:102878000240e9006ff8b7000040eb00606798007d
:102888002e6090000080fb0000004000e400400043
:1028980060af21000080400010007800100278002e
:1028a8002417980010003700e286210012417800b2
:1028b8008281fb002e10900090407800e07e21007d
:1028c80000804100014878000240e8006ef8b70037
:1028d8002e1090000000e800201798006e6090000d
:1028e8000040e800606798002e6090000080fb00c0
:1028f80000004000e400400060af2100008040007c
:1029080010007800a04090006e60900080cf5000ca
:10291800e5ff3e004e109000610220008e804000ce
:10292800922107008e60900060c2b30080cf5000f3
:10293800150032000e6090000080fb006e61900070
:102948008000400000aa2100008040000248780072
:102958000e6090008081fb002e6090000080fb00dc
:1029680000004000e400400060af2100008040000b
:1029780010007800304190008380410010aa2100a7
:10298800008040000248780005012000358f98003b
:10299800d61937002e6090000040e80020679800a4
:1029a8002e609000e64f500047fd36000040eb00d7
:1029b80020679800030037002e6090000040e80070
:1029c800206798002e609000e64f500009003e00f6
:1029d8002e6090000080fb0000004000e4004000f2
:1029e80060af210000804000100078000000e00087
:1029f800f1ff32002e609000e74f500001003a00ce
:102a0800f61aa900b0d78000620060000000e0005c
:102a18004a0332000040eb00705f9800c90037009d
:102a28007e5890000080fb0041b621000000400065
:102a380001004000100078000000e000be003200f5
:102a48007e5890000080fb0041b621000000400045
:102a58000100400010007800600090000000e000d5
:102a6800b50032007e5890000080fb0041b621007e
:102a7800000040000100400010007800900890001d
:102a880000802000008060000000e00011003a0093
:102a98005e119000ee1190007e5890000080fb00bf
:102aa80041b62100000040000100400010007800fd
:102ab800b000900020009000000151008181590071
:102ac80020e0230001002000800f5100818f590071
:102ad8001c003e007e5890000080fb0041b621009b
:102ae80000004000010040001000780090089000ad
:102af80000802000008060000000e0008e003200ae
:102b08005e119000ee1190007e5890000080fb004e
:102b180041b621000000400001004000100078008c
:102b2800b000900020009000000151008181590000
:102b380010832c0001002000800f5100818f590064
:102b48007d0036007e5890000080fb0041b62100d1
:102b5800000040000100400010007800e0009000f4
:102b6800211798000040eb006067980010003700bc
:102b7800e2862100124178008281fb002e1090002d
:102b880090407800e07e21000080410001487800f4
:102b98000240e8006ef8b7002e1090000000e80030
:102ba800201798006e6090000040e8006067980069
:102bb8006e609000e54f5000edff36000040eb00de
:102bc8006067980010003700f286210012417800f3
:102bd8008281fb002e10900090407800e07e21005a
:102be80000804100014878000240e9006ff8b70012
:102bf8002e1090000000e800201798006e609000ea
:102c08000040e800606798006e609000e74f500051
:102c1800edff36007e5890000080fb0041b6210091
:102c28000000400001004000100178009208900068
:102c3800f07f2f0000806000100998007e589000f7
:102c48000080fb0041b62100000040000100400068
:102c580010017800120890004800de00674060000c
:102c68000040e900674060000080fb0067006000ea
:102c7800c801dd0092089000f08f2f0000806000ee
:102c880003007000100998007e5890000080fb0037
:102c980041b621000000400001004000100078000b
:102ca8005e119000ee119000220098003300980009
:102cb8007e5890000080fb0041b6210000004000d3
:102cc800010040001000780090089000007020007b
:102cd800008060000000e00010003a007e5890007c
:102ce8000080fb0041b621000000400001004000c8
:102cf80010007800600090006d6a07007e58900010
:102d08000080fb0041b621000000400001004000a7
:102d1800900078000000eb00e000980061022000bd
:102d28008e8040000080eb00902007000301200007
:102d3800338f9800ed1837007e5890000040e80067
:102d4800705f98007e589000e34f500034ff3600c3
:102d58000040eb00705f9800540037007e589000e8
:102d68000080fb0041b62100000040000100400047
:102d7800100078000000e000490032005e11900069
:102d8800ee1190007e5890000080fb0041b62100b3
:102d98000000400001004000100078001000be0054
:102da800000151008181590080962800910020007f
:102db800800f5100818f5900390036007e589000ed
:102dc8000080fb0041b621000000400001004000e7
:102dd80010007800205090000080fb006600b900c9
:102de8008000780090e5800000804000a0e5880021
:102df800a1e58000c0ca210062c0b3009364070047
:102e080070e58000e10f500006003a002000200025
:102e180070e58800c1ca2100a0e5800062c0b30047
:102e2800cd6407007e5890000080fb0041b6210069
:102e38000000400001004000100078006000900091
:102e48000000e000080032007e5890000080fb007f
:102e580041b6210000004000010040001000780049
:102e680060009000126a07007e5890000080fb0006
:102e780041b6210000004000010040001000780029
:102e88000b6a07007e5890000080fb0041b62100c5
:102e980000004000810040000000eb00800878003e
:102ea8007e5890000040e800705f98007e589000bf
:102eb800e34f5000a9ff36000040eb006067980020
:102ec800cf0137006e6090000080fb0000004000da
:102ed800f800400060af210000804000100078003a
:102ee8000000e000c30132000040eb00605f980082
:102ef8006e6090000080fb0000004000f800400079
:102f080060af21000080400010007800f20220002d
:102f18000e014100810220008e80400030009000a8
:102f2800251b07000004e000c90032007e689000fd
:102f38000004e000b8003a006e6090000080fb00da
:102f480000004000f800400060af21000080400011
:102f580010007800a000900030dc8000808f5000c6
:102f680044003a000040eb00605f9800030037001f
:102f78006e5890000040e800605f9800ee5890009e
:102f880050c2b30080cf500008003e006e58900039
:102f98000080fb008000400010aa21000080400053
:102fa800104078000004e000f1ff3a00ee5890006d
:102fb80060c2b30080cf50002e003a006e609000cf
:102fc8000080fb0000004000f800400060af2100d6
:102fd8000080400010007800100078006700400072
:102fe80010407800e6f7b70010cfb300ccf7b70071
:102ff8006e6090000080fb0000004000f800400078
:1030080060af2100008040001000780010007800b8
:10301800a76907006e6090000080fb000000400078
:10302800f800400060af21000080400010007800e8
:103038009f6907006e6090000080fb000000400060
:10304800f800400060af2100808040000000eb00e5
:10305800800878007218a900f0c7b3006ff8b700ad
:103068000040eb006ef8b70044032000348f98004e
:103078001e1837006e6090000080fb0000004000c2
:10308800f800400060af2100008040001000780088
:1030980090027800251798000040eb0070679800b0
:1030a80010003700e2862100124178008281fb007f
:1030b8002e10900090407800e07e210000804100b2
:1030c800014878000240e8006ef8b7002e10900022
:1030d8000000e800201798007e6090000040e8009b
:1030e800706798006e6090000080fb000000400050
:1030f800f800400060af2100008040001000780018
:10310800a04090007e60900080cf5000e5ff3e0018
:103118004e109000710220008e804000931f07001f
:103128006e6090000080fb0000004000f800400046
:1031380060af21000080400010007800a0009000df
:1031480030dc8000808f500017003a006e589000e5
:103158000080fb007e6190008000400000aa2100f2
:1031680000804000024878006e5890008081fb0083
:103178006e6090000080fb0000004000f8004000f6
:1031880060af210000804000100078001000780037
:1031980067004000104178008380410010aa210098
:1031a80000804000024878006e6090000080fb00bc
:1031b80000004000f800400060af2100008040009f
:1031c8001000780010007800396907006e609000e0
:1031d8000080fb0000004000f800400060af2100c4
:1031e8000080400010007800316907006e60900090
:1031f8000080fb0000004000f800400060af2100a4
:10320800808040000000eb0080087800000120006a
:10321800308f9800b51737007e689000e24f500055
:10322800f4003a006e6090000080fb00000040004f
:10323800f800400060af21000080400010007800d6
:10324800a000900030dc8000808f50002e003a00f3
:103258006e6090000080fb0000004000f800400015
:1032680060af210000804000100078001000780056
:103278006700400010407800e6f7b7000040eb0018
:10328800ccf7b7006e6090000080fb0000004000a3
:10329800f800400060af2100008040001000780076
:1032a80010007800026907006e6090000080fb0043
:1032b80000004000f800400060af2100008040009e
:1032c80010007800fa6807006e6090000080fb002c
:1032d80000004000f800400060af210080804000fe
:1032e8000000eb00800878007218a900f0c7b3004e
:1032f8006ff8b7000040eb006ef8b70041032000fc
:10330800318f980079173700f88621001844780023
:103318008884fb00011e070080407800e07e2100c1
:1033280000804400014878000840e9006ff8b700c1
:10333800f2862100124178008280fb00e07e2100a5
:1033480080804000a0c0b300804878000240e900b7
:103358006ff8b700f3862100934178008380fb0063
:1033680072b8210012417800e07e21000080400000
:10337800024878000340e9006ff8b700f38621009f
:10338800934178008380fb0062b8210012417800e5
:10339800e07e210000804000024878000340e900f8
:1033a8006ff8b700f2862100124178008281fb0095
:1033b8006e6090000080fb0000004000f8004000b4
:1033c80060af21000080400010007800d0409000dd
:1033d800e07e210000804100014878000240e900b9
:1033e8006ff8b700f2862100124178008281fb0055
:1033f8006e6090000080fb0000004000f800400074
:1034080060af21000080400010007800c0409000ac
:10341800e07e210000804100014878000240e90078
:103428006ff8b700f2862100124178008280fb0015
:10343800e07e2100808040000040eb00804878005a
:103448000240e9006ff8b700f286210012417800c7
:103458008280fb00e07e21008080400090c0b300a5
:10346800804878000240e9006ff8b700e286210042
:10347800124178008280fb00e07e210080804000bd
:1034880030c0b300804878000240e8006ef8b7000a
:10349800e2862100124178008280fb00e07e210054
:1034a800808040000040eb00804878000240e8003f
:1034b8006ef8b700e2862100124178008281fb0095
:1034c8006e6090000080fb0000004000f8004000a3
:1034d80060af21000080400010007800e0409000bc
:1034e800e07e210000804100014878000240e800a9
:1034f8006ef8b700e2862100124178008281fb0055
:103508006e6090000080fb0000004000f800400062
:1035180060af21000080400010007800f04090006b
:10352800e07e210000804100014878000240e80068
:103538006ef8b7006e6090000080fb00000040004d
:10354800f800400060af21000080400010007800c3
:1035580020009000710220008e804000831e07002a
:103568006e6090000080fb0000004000f800400002
:1035780060af210000804000100078001000780043
:103588004b6807006e6090000080fb000000400060
:10359800f800400060af21000080400090007800f3
:1035a8000000eb00800878006e6090000080fb004f
:1035b80000004000f800400060af2100008040009b
:1035c800100078003a6807006e6090000080fb00e9
:1035d80000004000f800400060af210080804000fb
:1035e8000000eb008008780002012000328f98006c
:1035f800be1637006e6090000040e80060679800d3
:103608006e609000e54f50002efe36000040eb0043
:103618006067980090e58000a0e588001a003700f0
:10362800a1e58000c0ca210062c0b300876207001c
:1036380070e58000e20f50000d003a0030002000d5
:1036480070e588000080eb0060e58800c1ca2100b1
:10365800a0e5800062c0b300bf62070020c0b300cd
:10366800ccf7b70033072000338f98009f16370038
:103678006e6090000040e80060679800a0e5800058
:1036880066004000a0e588006e609000ef4f500093
:10369800e3ff36000040eb00606798000300370046
:1036a8006e6090000040e800606798006e609000cf
:1036b800e54f500009003e006e6090000080fb005e
:1036c80000004000f800400060af2100008040008a
:1036d800100078000000e000f1ff32006e609000fa
:1036e800e64f500015003a000040eb006067980074
:1036f800030037006e6090000040e80060679800a3
:103708006e609000e34f500008003e006e6090002d
:103718000080fb0041b6210000004000010040008d
:10372800100078000000e000f2ff32006e609000a8
:10373800e44f500001003a00f63aa900b0d78000e3
:1037480001002800010060000000e00012003200c3
:103758005e119000ee11900060da800071da80004e
:1037680000015100818159000080270001002000dc
:10377800800f5100818f590007003600a0ccb3009c
:10378800ccf7b7000080eb0090be8800a4032000af
:10379800348f980055163700b0d7800001082000f4
:1037a800010060000000e00012003200f6faa900f3
:1037b80088dabf00ccf7b70089dabf00cdf7b700c9
:1037c80080d48000a0be8800c0d48000d1d48000fe
:1037d800e0be8800f1be8800e2d48000f3d4800007
:1037e80002bf880013bf8800c3042000338f9800ed
:1037f8003e163700b0d78000680060000000e00087
:10380800a6013200b0d7800001042000010060004a
:103818000000e00006003200f6daa90010c0b3008c
:10382800ccf7b70044022000348f98002f163700d9
:10383800b0d7800001022000010060000000e00015
:10384800030032008002eb00358f980027163700fe
:103858003ddbbf00f94f5000c90032000040eb00cb
:10386800606798003ddbbf000080fb007200b90074
:103878008000780030e580000080400050e5880036
:1038880051e5800040c8210022c1b300ef61070064
:1038980091e4800000202000008060000000e0002b
:1038a8000600320091e48000000c20008080600057
:1038b80000042000808f5000040032003ddbbf0070
:1038c8000040e8003dfbb7000200370010c0b3001d
:1038d800606798003ddbbf00f84f500003003e00d2
:1038e8006e6090000004e000deff32006e60900021
:1038f8000004e000a90032003ddbbf000040e80002
:103908003dfbb7000040eb006067980011003700ee
:10391800f2862100124178008281fb006e609000df
:103928000080fb00e700100040c821000080400034
:1039380090407800e07e2100008041000148780036
:103948000240e9006ff8b7006e6090000040e800a0
:10395800606798006e609000e74f5000ecff3600fb
:10396800f8862100184478008884fb006b1c070047
:1039780080407800e07e2100008044000148780003
:103988000840e9006ff8b700f2862100124178007c
:103998008280fb00e07e21008080400010c0b300e0
:1039a800804878000240e9006ff8b700f3862100ec
:1039b800934178008380fb0072b82100124178009f
:1039c800e07e210000804000024878000340e900c2
:1039d8006ff8b700f3862100934178008380fb00dd
:1039e80062b8210012417800e07e2100008040008a
:1039f800024878000340e9006ff8b700f386210019
:103a0800934178008380fb00d2c8210012417800de
:103a1800e07e210000804000024878000340e90071
:103a28006ff8b700f3862100934178008380fb008c
:103a3800c2c8210012417800e07e210000804000c9
:103a4800024878000340e9006ff8b700f2862100c9
:103a5800124178008280fb00e07e210080804000d7
:103a68000040eb00804878000240e9006ff8b7009a
:103a78006fd8bf000080fb000001e8006fd8bf00ce
:103a88000080fb008000e800e07e2100008040000c
:103a980010407800804078000134a000e07e2100ca
:103aa8000000410001487800f286210012417800a8
:103ab8008280fb00e07e21008080400090c0b3003f
:103ac800804878000240e9006ff8b700e2862100dc
:103ad800124178008280fb00e07e21008080400057
:103ae80040c0b300804878000240e8006ef8b70094
:103af80000c4b30060679800b1d7800000202000a0
:103b0800008060000000e000040032006e60900059
:103b180001c8b3000140700060679800b0d780000a
:103b280001002200010060000000e00004003a00eb
:103b38006e60900001c2b300014070006067980099
:103b4800e3862100934178008380fb006e6190003a
:103b5800e07e210000804000024878000340e80031
:103b68006ef8b70060e48000610220008e8040009b
:103b7800fe1c070000012000308f98005b153700fd
:103b8800f73aa9000040eb00a2fcb70061c9210088
:103b980040e5800002c1b3006f610700b0d7800024
:103ba80001202000010060000000e0001900320040
:103bb800a2dcbf000004e000160032005e11900095
:103bc800ee119000f0d9800001da80000004510065
:103bd80081845900e0e480006103b8008600780021
:103be800f02f25000009b8006730b90003027800fb
:103bf80000024200f02f250000b8b9000002420080
:103c0800840178000200be00800f5400818f5c00a0
:103c1800a2003600f6daa800c0be210041e4280060
:103c280007000900315878008000b1000040eb001f
:103c38006067980011003700f28621001241780071
:103c48008281fb006e6090000080fb00e70010009e
:103c5800c0be21000080400090407800e07e210036
:103c680000804100014878000240e9006ff8b70081
:103c78006e6090000040e800606798006e609000f9
:103c8800e74f5000ecff3600f88621001844780012
:103c98008884fb00a11b070080407800e07e21009b
:103ca80000804400014878000840e9006ff8b70038
:103cb800f2862100124178008280fb00e07e21001c
:103cc8008080400010c0b300804878000240e900be
:103cd8006ff8b700f3862100934178008380fb00da
:103ce80072b8210012417800e07e21000080400077
:103cf800024878000340e9006ff8b700f386210016
:103d0800934178008380fb0062b82100124178005b
:103d1800e07e210000804000024878000340e9006e
:103d28006ff8b700f2862100124178008280fb000c
:103d3800e07e21008080400000c0eb0080487800d1
:103d48000240e9006ff8b700f286210012417800be
:103d58008280fb00e07e210080804000c0cfb3005d
:103d6800804878000240e9006ff8b700f286210029
:103d7800124178008280fb00e07e210080804000b4
:103d88000040eb00804878000240e9006ff8b70077
:103d98006fd8bf000080fb000001e8006fd8bf00ab
:103da8000080fb008000e800e07e210000804000e9
:103db80010407800804078000144a000e07e210097
:103dc8000000410001487800f28621001241780085
:103dd8008280fb00e07e21008080400090c0b3001c
:103de800804878000240e9006ff8b700e2862100b9
:103df800124178008280fb00e07e21008080400034
:103e080040c0b300804878000240e8006ef8b70070
:103e18000040eb0060679800b1d7800000202000c8
:103e2800008060000000e0000c003200a2dcbf004f
:103e38000004e00009003a00b0d7800001402000eb
:103e4800010060000000e000040032006e60900095
:103e580001c8b3000140700060679800e386210044
:103e6800934178008380fb006e619000e07e210022
:103e780000804000024878000340e8006ef8b70070
:103e8800610220008e8040000080eb00371c070094
:103e980002012000328f9800941437008001eb0053
:103ea800338f9800911437003e3090006101b800bc
:103eb800f0fe2f00f1ff2f0002014000838148002f
:103ec800428f9800538f98001006200001002000b0
:103ed8004e8a9000de8a9000800f5200818f5a002f
:103ee80080143e004e889000de889000006001003b
:103ef80061003700710137007a14370079143700f0
:103f080078143700ab0b370076143700e20b370014
:103f180074143700731437003d0c37006d0c3700ec
:103f2800701437006f1437006e1437006d143700a3
:103f38006c143700f00c37006a1437006914370026
:103f4800fa0c370067143700661437006514370019
:103f5800490d3700c50e3700621437006114370069
:103f680060143700d60e37005e1437005d14370032
:103f78005c143700d90e3700e60e370059143700a5
:103f880058143700571437005614370055143700a3
:103f980054143700531437005214370051143700a3
:103fa800501437004f1437004e1437004d143700a3
:103fb80086103700d9103700dd103700f7103700aa
:103fc8001e113700e6113700011237000c133700b5
:103fd80010133700431437004214370041143700d8
:103fe800401437003f1437003e1437003d143700a3
:103ff8003c1437003b1437003a14370039143700a3
:1040080038143700371437003614370035143700a2
:1040180034143700331437003214370031143700a2
:10402800301437002f1437002e1437002d143700a2
:104038002c1437002b1437002a14370029143700a2
:1040480028143700271437002614370025143700a2
:1040580024143700231437002214370021143700a2
:10406800201437001f1437001e1437001d143700a2
:104078001c143700fa1237000040eb006067980004
:10408800d20037006e6090000080fb004200dd0027
:10409800610220008080400060af21000080400065
:1040a80010007800e10f4000c5003200627e210058
:1040b800124178006e6090000080fb004200dd0035
:1040c800410220008080400060af21000080400055
:1040d80010409000804f5100b9003a00ccd7bf0083
:1040e8000004e000ad0032000040eb006ef8b700bd
:1040f800f0c7b3006ff8b7007218a800f286210065
:10410800124178008281fb006e6090000080fb0005
:104118004200dd00410220008080400060af2100a5
:104128000080400090407800e07e2100008041003f
:10413800014878000240e9006ff8b700f2862100d4
:10414800124178008280fb00e07e210080804000e0
:10415800a0c0b300804878000240e9006ff8b700bb
:10416800f3862100934178008380fb0072b8210018
:1041780012417800e07e210000804000024878006b
:104188000340e9006ff8b700f386210093417800f7
:104198008380fb0062b8210012417800e07e210094
:1041a80000804000024878000340e9006ff8b7003b
:1041b800f2862100124178008281fb006e60900037
:1041c8000080fb004200dd0071022000808040007a
:1041d80060af21000080400090407800e07e210020
:1041e80000804100014878000240e9006ff8b700fc
:1041f800f2862100124178008281fb006e609000f7
:104208000080fb004200dd00610220008080400049
:1042180060af21000080400090407800e07e2100df
:1042280000804100014878000240e9006ff8b700bb
:10423800f2862100124178008280fb00e07e210096
:10424800808040000040eb00804878000240e90090
:104258006ff8b700f2862100124178008280fb00d7
:10426800e07e21008080400090c0b3008048780044
:104278000240e9006ff8b700e28621001241780099
:104288008280fb00e07e21008080400030c0b300c7
:10429800804878000240e8006ef8b700e286210006
:1042a800124178008280fb00e07e2100808040007f
:1042b8000040eb00804878000240e8006ef8b70044
:1042c800e2862100124178008281fb006e60900036
:1042d8000080fb004200dd00610220008080400079
:1042e80060af21000080400090407800e07e21000f
:1042f80000804100014878000240e8006ef8b700ed
:10430800e2862100124178008281fb006e609000f5
:104318000080fb004200dd00710220008080400028
:1043280060af21000080400090407800e07e2100ce
:1043380000804100014878000240e8006ef8b700ac
:104348006e6090000080fb004200dd0061022000ea
:104358008080400060af210000804000100078009d
:10436800610220008e804000001b07006e609000f4
:104378000080fb004200dd006102200080804000d8
:1043880060af2100808040000080eb00800878004a
:1043980001012000318f9800541337006e6090009f
:1043a8000080fb004200dd006102200080804000a8
:1043b80060af2100808040000080eb00800878001a
:1043c8006e6090000040e800606798006e609000a2
:1043d800e54f50002bff36000040eb006067980067
:1043e800030037006e6090000040e80060679800a6
:1043f800ee60900050c2b30080cf500009003e002c
:104408006e6090000080fb008000400000aa210040
:104418000080400090407800e6d7bf0080cf500071
:10442800f0ff3a00ee60900060c2b30080cf500009
:1044380003003a000001eb00328f98002b1337007d
:104448006e6090000080fb008000400010aa2100f0
:1044580000804000104078000004e0000a003200ac
:104468006e6090000080fb008000400010aa2100d0
:104478000080400010407800e6f7b70040c3b30062
:10448800505f9800020037000040eb00505f980032
:104498006e6090000080fb008000400010aa2100a0
:1044a800808040000040eb00804878005e58900013
:1044b8000080fb00308f98000c13370080c0b300d9
:1044c800205f9800e019070000779800de190700c0
:1044d80010779800dc19070020779800da19070090
:1044e80030779800d819070040779800d619070048
:1044f80050779800d4190700405f9800d219070038
:10450800305f98001e709000684060000004e00072
:10451800130032000040eb00606798000a00370083
:104528006e6090000084fb00c71907008040780087
:1045380000a8210000004400014878006e60900047
:104548000040e800606798006e609000e74f5000f8
:10455800f3ff36002e58900068404000205f980016
:104568001e709000704060000004e00013003200ec
:104578000040eb00606798000a0037006e6090000a
:104588000084fb00b01907008040780080a7210054
:1045980000004400014878006e6090000040e80088
:1045a800606798006e609000e74f5000f3ff360098
:1045b8002e58900068404000205f9800e0be8000c0
:1045c800e10f4000030032001e189000e50f400084
:1045d800dd0436000040eb006067980028003700d3
:1045e8006e6090000080fb0000004000e400400086
:1045f80060af210000804000100078000000e0005b
:104608001c0032002e1990006e6090000080fb00a4
:1046180000004000e400400060af2100008040003e
:104628001000780030009000800f510011003a000f
:104638006e6090000080fb0000004000e400400035
:1046480060af21000080400010007800b04090006a
:104658003e58900080cf500006003a006e609000ef
:1046680006190700a83f07008001eb00338f980068
:104678009e1237006e6090000040e8006067980066
:104688006e609000e64f5000d5ff36000e70900027
:1046980063406000e14f500004043a006a190700c3
:1046a800606798006e609000e14f500004033a0084
:1046b800b0d7800001102000010060000000e00079
:1046c800ff023200ae18900030dc8000808f50006e
:1046d80004003a008c3f07000002eb00348f98007a
:1046e800821237000040eb00105f980010c0b30042
:1046f80060779800541907007077980052190700de
:10470800007f980050190700207f98004e19070075
:10471800307f98004c190700407f9800ce7a9000af
:10472800055f98004e7890000040e800407f9800b0
:10473800717e21009140780070cdb30080cf500089
:1047480003003e004e7890000040e800407f98004b
:10475800717e21009140780030cbb30080cf5000ab
:1047680003003e004e7890000040e800407f98002b
:10477800717e210091407800f0c8b30080cf5000ce
:1047880003003e004e7890000040e800407f98000b
:10479800717e210091407800b0c6b30080cf5000f0
:1047a80003003e004e7890000040e800407f9800eb
:1047b800717e21009140780070c4b30080cf500012
:1047c80003003e004e7890000040e800407f9800cb
:1047d800717e21009140780030c2b30080cf500034
:1047e80003003e004e7890000040e800407f9800ab
:1047f8007e7090008e78900000427800de1990005c
:104808002e19900010c0b3006c1507000004e000da
:10481800b0013200e0be8000e10f4000ad013a0077
:104828000040eb00607f9800030037006e7890002e
:104838000040e800607f98006e789000e34f5000d9
:104848001c003e006e7890000080fb0041b62100fd
:104858000000400001004000100078000000e00067
:10486800f2ff32006e7890000080fb0041b6210014
:10487800000040000100400010007800e04890006f
:104888000e78900080cf5000e8ff3a006e789000d4
:104898000080fb0041b621000000400001004000fc
:1048a80010007800c00090002e189000808f5000f3
:1048b800deff3a006e789000e34f50005d003e0046
:1048c8006e7890000080fb0041b621000000400097
:1048d8000100400010047800400720000e0040004e
:1048e8004d6307002e389000be389000008cbe0043
:1048f8004e7990006e7890000080fb0041b6210050
:10490800000040000100400010007800704890004e
:10491800804f510043003e006e7890000080fb00fd
:1049280041b62100000040000100400090007800de
:10493800a0be8000d00098006e7890000080fb0038
:1049480041b62100000040000100400090007800be
:104958004e789000f04898006e7890000080fb0038
:1049680041b621000000400001004000100178001d
:10497800ce7890000e58900000c05000105198005a
:1049880031dc80005e189000808f50000a003200f1
:104998005e189000e4180700f94f50001e0032001e
:1049a80091e48000000c200080806000000420005a
:1049b800808f500018003a00d33e070072d8bf001d
:1049c800614060000004e00010003a006e7890003a
:1049d8000080fb0041b621000000400001004000bb
:1049e8001000780010509000407f9800ee789000fa
:1049f800620320000e0141002e189000f6120700f5
:104a080000012000308f9800b81137008000eb00bb
:104a1800318f9800b511370010c0b300105f9800af
:104a28008b003700b83e07000001eb00328f98007a
:104a3800ae113700f20320000e014100e10320000f
:104a48008e8040005e189000a01307000004e0006c
:104a580004003a00ac3e07008001eb00338f980059
:104a6800a21137006e7890000080fb0041b621004b
:104a78000000400001004000900078000e7890008f
:104a8800e04898006e7890000080fb0041b6210055
:104a98000000400001004000100078002e1a90002d
:104aa800440098006e7890000080fb0041b6210019
:104ab800000040000100400090007800a0be800087
:104ac800d00098006e7890000080fb0041b621006d
:104ad8000000400001004000900078004e789000ef
:104ae800f04898006e7890000080fb0041b62100e5
:104af800000040000100400010007800d000900045
:104b08002e189000808f50000d0032006e789000b3
:104b18000080fb0041b62100000040000100400079
:104b28001001780092089000f08f2f00008060003c
:104b38000110200001007000100998000c003700d7
:104b48006e7890000080fb0041b621000000400014
:104b5800010040001001780092089000f08f2f00ab
:104b680000806000013020000100700010099800ea
:104b78006e7890000080fb0041b6210000004000e4
:104b88000100400010017800920890000080200089
:104b980000807000100998006e7890000080fb007b
:104ba80041b62100000040000100400010017800db
:104bb800ce7890000e58900000c050001051980018
:104bc80031dc80005e189000808f50000a003200af
:104bd8005e18900054180700f94f50001a00320070
:104be80091e48000000c2000808060000004200018
:104bf800808f500014003a00433e070072d8bf006f
:104c0800614060000004e0000c003a00ce7890009b
:104c18000e58900000c05000407f9800ee78900039
:104c2800620320000e0141002e1890006a1207004e
:104c380005012000358f98002c1137000000eb008b
:104c4800308f98002911370010c0b300105f98000a
:104c58001e5890000004e0009901320072d8bf008d
:104c6800614060000004e00095013a006e78900011
:104c78000080fb0041b62100000040000100400018
:104c880010007800600090000000e00009003a0081
:104c98006e7890000080fb0041b6210000004000c3
:104ca8000100400010047800e0c0b3007a620700f9
:104cb800600498006e7890000080fb0041b62100e7
:104cc80000004000010040001000780060009000e3
:104cd8000000e0007b003200600320000e0040006e
:104ce800201798006e7890000080fb0041b62100e4
:104cf800000040000100400010007800e000900033
:104d0800310f9800ee7090003e089000014878003e
:104d18003e0890000000e800300f9800fe709000f8
:104d28003e089000014878003e0890000000e80026
:104d3800300f98008e7890003e0890000148780067
:104d48003e0890000000e800300f9800ae78900010
:104d58003e089000014878003e0890000000e800f6
:104d6800300f9800be7890003e0890000148780007
:104d78003e0890000000e800300f9800ce789000c0
:104d88003e089000014878003e0890000000e800c6
:104d9800300f980061170700804078003e089000a7
:104da800014878003e0890000000e800300f9800a5
:104db8004e5890000040e900804078003e0890007e
:104dc800014878003e0890000000e800300f980085
:104dd800de7090003e089000014878003e08900080
:104de8000000e800300f9800ce7090003e08900058
:104df800014878003e0890000000e800300f980055
:104e0800be7090003e089000014878003e0890006f
:104e18000000e800300f9800ae7090003e08900047
:104e2800014878003e0890000000e800300f980024
:104e38009e7090003e089000014878003e0890005f
:104e48000000e800300f98008e7090003e08900037
:104e5800014878003e0890000000e800300f9800f4
:104e68006e7890000080fb0041b6210000004000f1
:104e78000100400010047800800720000e00400068
:104e8800e56107004e389000de3890002004980055
:104e9800310498006e7890000080fb0041b6210034
:104ea80000004000010040001001780092089000c6
:104eb800f08f2f000080600001402000010070008a
:104ec80010099800903d07000001eb00328f980010
:104ed80086103700a0be800093170700f94f5000d6
:104ee8001200320091e48000000c200080806000f5
:104ef80000042000808f50000c003a00a1be800002
:104f08002e189000808f5000130032009adcbf00ea
:104f18000040e80000417800ae189000a0be800074
:104f2800b61607000004e0000b003a00a1be80009e
:104f3800f0db8000808f5000dd003a00a2c921001c
:104f480012417800ae18900030dc8000ab160700e4
:104f58000004e000d6003a0031dc80005e189000c2
:104f6800808f5000100032005e1890006e17070006
:104f7800f94f50002000320091e48000000c20001e
:104f88008080600000042000808f50001a003a00e2
:104f980091e480000003200080806000000220006f
:104fa800808f500014003a00573d070072d8bf00a8
:104fb800614060000004e0000c003a00ce789000e8
:104fc8000e58900000c05000407f980062032000f7
:104fd8000e01410041c0b3002e1890007e11070059
:104fe80003012000338f9800401037000002eb00c7
:104ff800348f98003d103700810220008e804000d9
:105008001e189000311807000004e000a4003200c8
:1050180072d8bf00614060000004e000a0003a00c0
:10502800600320000e00400020179800e28621004f
:10503800124178008281fb002e1090009040780089
:10504800e07e210000804100014878000240e8002d
:105058006ef8b7002e1090000000e80020179800a6
:10506800e2862100124178008281fb002e10900018
:1050780090407800e07e21000080410001487800df
:105088000240e8006ef8b7002e1090000000e8001b
:1050980020179800e2862100124178008281fb00e7
:1050a8002e10900090407800e07e210000804100a2
:1050b800014878000240e8006ef8b7002e10900012
:1050c8000000e80020179800e286210012417800cd
:1050d8008281fb002e10900090407800e07e210035
:1050e80000804100014878000240e8006ef8b700ef
:1050f8002e1090000000e80020179800e28621009a
:10510800124178008281fb002e10900090407800b8
:10511800e07e210000804100014878000240e8005c
:105128006ef8b7002e1090000000e80020179800d5
:10513800e2862100124178008281fb002e10900047
:1051480090407800e07e210000804100014878000e
:105158000240e8006ef8b7002e1090000000e8004a
:1051680020179800f8862100184478008884fb00ee
:105178006a16070080407800e07e21000080440025
:10518800014878000840e9006ff8b700f28621006e
:10519800124178008280fb00e07e21008080400080
:1051a800a0c0b300804878000240e9006ff8b7005b
:1051b800f3862100934178008380fb0072b82100b8
:1051c80012417800e07e210000804000024878000b
:1051d8000340e9006ff8b700f38621009341780097
:1051e8008380fb0062b8210012417800e07e210034
:1051f80000804000024878000340e9006ff8b700db
:10520800f3862100934178008380fb003e71900073
:10521800e07e210000804000024878000340e90059
:105228006ff8b700f3862100934178008380fb0074
:105238002e719000e07e2100008040000248780036
:105248000340e9006ff8b700f286210012417800a8
:105258008280fb00e07e2100808040000040eb005f
:10526800804878000240e9006ff8b700f286210014
:10527800124178008280fb00e07e2100808040009f
:1052880090c0b300804878000240e9006ff8b7008a
:105298004e109000610220008e80400033170700f6
:1052a800993c070005012000358f98008f0f3700c3
:1052b800953c07000000eb00308f98008b0f3700fb
:1052c8006e609000e44f5000f4003a005e1607004c
:1052d80050579800ae18900030dc8000808f500046
:1052e80004003a00883c07008000eb00318f9800ea
:1052f8007e0f37004e589000e14f5000a200360054
:10530800000420000e004000301007000004e000f8
:10531800990032000ec090000080fb0000004000a1
:10532800e400400060af21000080400010017800d8
:10533800b2089000f0fe2f0000806000300998004d
:105348000ec09000cd1507000ec090000080fb0035
:1053580000004000e400400060af210000804000f1
:1053680090007800ccd7bf00a04098000ec09000f5
:105378000080fb0000004000e400400060af210016
:1053880000804000100078000e71900032489800ac
:105398000ec090000080fb0000004000e4004000c8
:1053a80060af210000804000100078009e719000de
:1053b800234898000ec090000080fb0000004000c9
:1053c800e400400060af21000080400090007800b9
:1053d8001e189000c00098000ec090000080fb00ce
:1053e80000004000e400400060af21000080400061
:1053f800900078002e189000b00098000ec0900021
:105408000080fb0000004000e400400060af210085
:1054180000804000900078004e5890000040e9005d
:10542800c04098000ec090000080fb0000004000c3
:10543800e400400060af21000080400010007800c8
:105448003e5a9000344098000ec090000080fb0047
:1054580000004000e400400060af210000804000f0
:1054680010047800ccd7bf008b600700000c7800d0
:10547800180078000000e00014003a000ec0900008
:105488000080fb0000004000e400400060af210005
:105498000080400010007800856007000ec0900072
:1054a8000080fb0000004000e400400060af2100e5
:1054b800808040000000eb0080087800123c070064
:1054c8008002eb00358f9800080f37000040eb0092
:1054d800606798000ec090000080fb00000040004c
:1054e800e400400060af2100008040001000780018
:1054f800900078006e6190000280fb008080400080
:1055080040c0b300804878000240e8006067980017
:1055180070be800020179800c17c2100914078005f
:10552800415798000f0037000ec090000080fb0024
:1055380000004000e400400060af2100008040000f
:105548001000780090007800ee6490000980fb005d
:1055580000844000bc150700004c78000940e800b2
:1055680060679800ccd7bf000004e000eeff3a0067
:10557800f61aa80004003700e33b07000001eb001f
:10558800328f9800d90e37002e189000e6150700c4
:10559800606798006e609000f94f50003f0032003d
:1055a8009d160700d83b07000040eb00ccf7b7007a
:1055b800c37d210044c8210007000900b4597800c0
:1055c800457d210040c8210007000900b05a780035
:1055d8000040eb00606798001d0037006e60900087
:1055e8000080fb006a00b9008000780010e68000a7
:1055f8008080400060cb2100a2c0b300935a07000e
:10560800f1e580002e189000808f50000d003a00c0
:105618000080eb00f0e5880063cb21006e6090000d
:105628000080fb006a00b9008000780010e6800066
:1056380000804000a2c0b30083007800c65a07006b
:10564800060037006e6090000040e8006067980030
:105658006e609000e74f5000e0ff36005e5090000b
:105668000080fb004600de000000a2006100600030
:105678000004e000060032005e5090000042b200d4
:10568800ccf7b700d1042000318f9800970e37006f
:10569800c2032000328f9800940e37009a3b07000f
:1056a8008001eb00338f9800900e37004e58900021
:1056b800e14f500097003600100420000e00400013
:1056c800420f07000004e0008e0032001ec0900068
:1056d8000080fb0000004000e400400060af2100b3
:1056e8000080400010017800b2089000f0fe2f0002
:1056f80000806000300998001ec09000df14070089
:105708001ec090000080fb0000004000e400400044
:1057180060af21000080400090007800ccd7bf0027
:10572800a04098001ec090000080fb0000004000d0
:10573800e400400060af21000080400010007800c5
:105748000e729000344898001ec090000080fb0044
:1057580000004000e400400060af210000804000ed
:10576800100078009e729000254898001ec0900096
:105778000080fb0000004000e400400060af210012
:1057880000804000900078001e189000c00098002b
:105798001ec090000080fb0000004000e4004000b4
:1057a80060af210000804000900078002e18900023
:1057b800b00098001ec090000080fb000000400070
:1057c800e400400060af21000080400090007800b5
:1057d8004e5890000040e900c04098001ec090005c
:1057e8000080fb0000004000e400400060af2100a2
:1057f8000080400010007800be58900031409800aa
:105808001ec090000080fb0000004000e400400043
:1058180060af21000080400010047800ccd7bf00a2
:105828009d5f0700000c7800180078000000e00079
:1058380014003a001ec090000080fb0000004000e9
:10584800e400400060af21000080400010007800b4
:10585800975f07001ec090000080fb00000040001a
:10586800e400400060af2100808040000000eb00b1
:1058780080087800243b07000001eb00328f980075
:105888001a0e37000040eb006067980073be800076
:1058980023179800c47c21001442780034579800dc
:1058a8000f0037001ec090000080fb000000400081
:1058b800e400400060af2100008040001000780044
:1058c80090007800ee6490000980fb00008440009e
:1058d800dd140700004c78000940e8006067980074
:1058e800ccd7bf000004e000eeff3a00ae129000f3
:1058f80075be88003e509000ccf7b700f61aa80095
:1059080004003700003b07008000eb00318f98004f
:10591800f60d3700ae18900030dc8000808f500004
:1059280004003a00f83a07000001eb00328f9800b3
:10593800ee0d37002e189000a0be880053032000fb
:10594800338f9800e90d37000e70900063406000b7
:10595800e14f5000b2033a00bb140700606798009b
:105968006e6090000080fb00608798006e82900057
:10597800e60f520063003200ee829000e78f52007b
:105988000100320068013700f7faa900ae140700d9
:1059980020c79800ac14070030c79800aa14070065
:1059a80020579800d83a070000a8210029150700b9
:1059b8000004e00003003a000000eb00308f98007c
:1059c800ca0d370050b72100b214070010579800cd
:1059d8001e509000f94f50001c0032000040eb00b0
:1059e8006067980030e5800050e5880014003700b3
:1059f80051e5800040c8210022c1b3009359070037
:105a080091e4800000202000008060000000e00099
:105a18000500320090e48000010c200001006000c5
:105a28000000e000090032006e6090000040e800cd
:105a38006067980050e580007200400050e58800db
:105a48006e609000f84f5000e9ff36002e5090002d
:105a58000004e000060032007278a9002e50900081
:105a6800ccf7b700a1032000318f98009f0d3700b5
:105a78001e20900030dc88008f49070092dca900c6
